:06000000020029020BBA08
:01000B0032C2
:0100130032BA
:01001B0032B2
:03002300020B7A53
:0300930002002642
:0300260002024192
:20009600AE82AF837C007D00C3EC9EED64808FF063F08095F05027C2C19001F4C007C006EE
:2000B600C005C004120BE9D2C19001F4120BE9D004D005D006D0070CBC00CD0D80CA229089
:2000D6000004120096753C58753D02D206E4F53EF53F7540487541437582011206FD300348
:2000F60014E4F50BF50CF50DF50E90002275F0401207D6D204753C84753D03C206E4F53E07
:20011600F53F7540487541437582001206FD300014E4F50BF50CF50DF50E90002275F0400E
:200136001207D6D20222753C40753D01D206E4F53EF53F7540AF7541437582001206FD9004
:20015600000A120BE9753C40753D01C206E4F53EF53F7540AF7541437582001206FD9000C9
:200176000A020BE9753C32753D00C206E4F53EF53F7540F07541427582011206FD9003E89C
:20019600120BE9753C32753D00D206E4F53EF53F7540167541437582010206FD753CB475F0
:2001B6003D00D206E4F53EF53F7540347541437582001206FD9003E8120BE9753C40753DB7
:2001D60001D206E4F53EF53F7540347541437582001206FD90000A020BE9753CFA753D000A
:2001F600C206E4F53EF53F7540F07541427582011206FD9003E8120BE9753CFA753D00D27C
:2002160006E4F53EF53F7540167541437582010206FD753CF4753D01C206E4F53EF53F75D6
:2002360040487541437582000206FD43947F859393120B00120BB3900FCC75F080120B20B0
:20025600900064120BE9E4F50BF50CF50DF50E90002275F0401207D61200D59000021200D3
:0C027600963002FD3004FA12013C80F5C5
:0E0FCC007374617274210D0A000000000000B1
:0A008200C200C201C202C203C204A0
:20028200AC82AD83AEF0FFE4C0E0C0E074B4C0E07442C0E08C828D838EF0EF120E01AC8245
:2002A200AD83AEF0FFE58124FCF581E4C0E0C0E074FAC0E07444C0E08C828D838EF0EF124C
:2002C20009FCAC82AD83AEF0FFE58124FCF581C004C005C006C00790000075F080743F12D0
:2002E2000E01AC82AD83AEF0FFE58124FCF581C004C005C006C00790500075F0C37447120B
:2003020009FCAC82AD83AEF0FFE58124FCF581E4C0E0C0E0C0E07440C0E08C828D838EF02B
:20032200EF120E01AC82AD83AEF0FFE58124FCF5818C828D838EF0EF020D57AC82AD83AEB7
:20034200F0FFC007C006C005C004E4C0E0C0E074A0C0E023C0E08C828D838EF0EF120C5CF6
:20036200AB82E58124FCF581D004D005D006D007EB60087C007D007EA07F41C007C006C085
:2003820005C004C004C005C006C00790000075F07A7444120C5CAB82E58124FCF581D004DE
:2003A200D005D006D007EB60087C007D007E7A7F44E4C0E0C0E074A0C0E023C0E08C828D7C
:2003C200838EF0EF120F0DAC82AD83AEF0FFE58124FCF581E4C0E0C0E074C8C0E07442C090
:2003E200E08C828D838EF0EF120E0185822E85832F85F030F531E58124FCF5817A007B0047
:20040200C3EA9464EB648094804001228A828B83C003C002120D8BA882A983AEF0FFC02EC5
:20042200C02FC030C031888289838EF0EF1209FCAC82AD83AEF0FFE58124FCF581E4C0E0D5
:20044200C0E074A0C0E023C0E08C828D838EF0EF120C8CAC82AD83AEF0FFE58124FCF58157
:20046200D002D003EA2AF8EB33F9E82401F8E93400F98C828D838EF0EFC003C002C001C006
:2004820000120282AE82AF83D000D001D002D00388828983EEF0EFA3F00ABA00010B0204D0
:2004A20002AF82A293B39200A294B39201A2B3B39203300106C20290000122300307200468
:2004C200049000012230000720020490000122EF700FB281853282853383C007120C2BD05E
:2004E20007BF011AC284853282853383C007120C2BD284853282853383120C2BD007BF02A4
:2005020016C286853282853383120C2BD286853282853383120C2B90000022AF827D007ECB
:20052200008D038E04C3EB9534EC95355036300804900001229000C7E0F532A3E0F5338F5D
:2005420082C007C006C0051204A3E5828583F0D005D006D00745F06004900001220DBD0015
:20056200C00E80BD90000022AC82AD83AEF0FF74ECC0E07451C0E07438C0E0743DC0E08C33
:20058200828D838EF0EF120E01AC82AD83AEF0FFE58124FCF581E4C0E0C0E0C0E0743FC00B
:2005A200E08C828D838EF0EF120C8CAC82AD83AEF0FFE58124FCF5818C828D838EF0EF02A0
:2005C2000D57AF82750B64750C00853682853783C007120CE5AD82AE83D007200503020672
:2005E2006EE4F538F539C3E5389464E53964809480400302066EE5382538F9E53933FAE9FE
:200602002401F9EA3400FA78007C00C3E89DEC64808EF063F08095F050473008049000015C
:200622002289828A83E0F532A3E0F5338F82C007C006C005C004C002C001C0001204A3E5C4
:20064200828583F0D000D001D002D004D005D006D00745F060049000012208B800AD0C8010
:20066200AA0538E4B5380205390205E83005030206F9753A63753B00E53B30E7030206F95B
:20068200E53A253AF9E53B33FAE92401F9EA3400FA78007C00C3E89DEC64808EF063F08018
:2006A20095F050473008049000012289828A83E0F532A3E0F5338F82C007C006C005C0043C
:2006C200C002C001C0001204A3E5828583F0D000D001D002D004D005D006D00745F060045B
:2006E2009000012208B800AD0C80AA153A74FFB53A02153B02067A90000022AF82853C82F7
:20070200853D83C007120D8B12056AAD82AE83D007ED2DFDEE33FEC3ED94D0EE9407401244
:200722007BE87C038B428C43ED2430F8EE34F8FA8013EEC313CD13CDFE8D038E048D428E6B
:200742004378007A00E84A7002F8FAA2069280C282A2069283853E82853F838540F0E541AA
:20076200C007C004C003C002C00012033DD000D002D003D004D0072008208B368C37D20592
:200782008F82C007C002C0001205C4E5828583F0D000D002D00745F0600122200816883498
:2007A2008A358F82C00712051DE5828583F0D00745F0600122200816854236854337C2057D
:2007C2008F821205C4E5828583F045F06001221008012222AD82AE83AFF0E50B120BBDA34B
:2007E200E50C120BBD74022DFDE43EFE8D828E838FF0E50D120BBDA3E50E020BBDAD82AEC4
:2008020083AFF0E50B120BBDA3E50C120BBD74022DFDE43EFE8D828E838FF0E50D120BBD51
:20082200A3E50E020BBD85824785834885F049AA44AB45AC468A828B838CF0120EC4F8A315
:20084200120EC4F98547828548838549F0120EC4FEA3120EC4FFE8C39EF54AE99FF54B7431
:20086200022AFDE43BFE8C078D828E838FF0120EC4F551A3120EC4F55274022547F54EE4FD
:200882003548F54F854950854E82854F838550F0120EC4F8A3120EC4F9E551C398F54CE5F3
:2008A2005299F54DC3E4954A7480854BF063F08095F05033854A3C854B3DD206E4F53EF5F8
:2008C2003F7540C8754142758200C007C006C005C004C003C0021206FDD002D003D004D072
:2008E20005D006D0078036C3E4954AF53CE4954BF53DC206E4F53EF53F7540C875414275E4
:200902008200C007C006C005C004C003C0021206FDD002D003D004D005D006D007900064B4
:20092200C007C006C005C004C003C002120BE9D002D003D004D005D006D007C3E4954C741D
:2009420080854DF063F08095F05033854C3C854D3DC206E4F53EF53F7540C87541427582DD
:2009620001C007C006C005C004C003C0021206FDD002D003D004D005D006D0078036C3E46C
:20098200954AF53CE4954BF53DD206E4F53EF53F7540C8754142758201C007C006C005C0AD
:2009A20004C003C0021206FDD002D003D004D005D006D0078A828B838CF0120EC4FAA31273
:2009C2000EC4FB8547828548838549F0EA120BBDA3EB120BBD8D828E838FF0120EC4FDA39D
:1A09E200120EC4FE854E82854F838550F0ED120BBDA3EE120BBD90000022C4
:2009FC00120A9FBC0003020DB9EF60FA30D502B2D1E583B4FF03020DCFE582B4FF03020D9E
:200A1C00CF258340072482400B020DB92483145003020DCFF582EA8DF0A4A8F0EA8EF0A431
:200A3C0028F8E435F0F9EB8DF0A428E935F0F9E433CA8FF0A429F9EA35F0FAEBF88EF0A409
:200A5C0029F9EA35F0FAE433FBEC8DF0A429F9EA35F0FAE43BFBE88FF0A42AFAEB35F0FBB1
:200A7C00E433CCFD8EF0A42AFAEB35F0FBE43CFCED8FF0A42BFBEC35F0FC20E703120ACDD7
:030A9C00020D98B0
:200A9F00AA82AB83A2F73392D1F5826002D2F7ACF0E58124F9F8E6FD08E6FE0886F008E6BA
:0E0ABF00A2F73392D5F5836002D2F7AFF02292
:06005800E478FFF6D8FD7C
:200ACD007804EC7011E58224F8500AF582E4C9CACBFCD8EF22EC7820058220E713D5820128
:130AED0022C3E933F9EA33FAEB33FBEC33FCD8EA15822236
:200036007905E94400601B7A01900FD578D375A000E493F2A308B8000205A0D9F4DAF275B4
:02005600A0FF09
:05008C00750800C20729
:200B0000759850438E01438E0475D7D075D6FF438E10D2AFD2AC2285829910990280FB2281
:200B2000AD82AE83AFF08D828E838FF0120EC4FC60188C820DBD00010EC007C006C0051274
:200B40000B17D005D006D00780DC22AF8275825AC007120B177582A5120B17758204120B0E
:200B600017758280120B17D0078F82120B17850982120B17850A82020B17C0E0C082C083F9
:200B8000C007C0D075D000109802801CE508FF04F508EF24C9F582E43400F583E599F074C1
:130BA000F625085003750800D0D0D007D083D082D0E03251
:02009100C208A3
:0A0BB300C288D2A8D2AF22D20832C5
:1B0BBD0020F71130F6138883A88220F509F6A8837583002280FEF280F5F02237
:200BD800438E805389F0758ACD758CD4C28DD28C22AE82AF837C007D00C3EC9EED9F5021CB
:200BF800C007C006C005C004120BD8D004D005D006D007308DFDC28CC28D0CBC00DB0D80F5
:200C1800D822438E4053890F758B10758DFFC28FD28E22AE82AF837C007D00C3EC9EED9FAE
:200C38005021C007C006C005C004120C1AD004D005D006D007308FFDC28EC28F0CBC00DB87
:040C58000D80D82211
:200C5C00FFA8811818120D2CD2D133E6400730E70B7582002220E70675820122C2D1120DBE
:100C7C000EE97003F5822220D101B3E433F5822210
:200C8C00120A9F7900E583B58202800D5003120DE7E583C39582120F18E5D0C465D020E163
:200CAC0017EA2DFAEB3EFBEC3FFC50097401120F18EC4480FC020D98C3EA9DFAEB9EFBECA7
:190CCC009FFC500FC3E499F9E49AFAE49BFBE49CFCB2D1120ACD020D985B
:20005E007800E84400600A790175A000E4F309D8FC78D2E84400600C7901900001E4F0A3CD
:04007E00D8FCD9FAD7
:200CE5007A10E4FBFCE58225E0F582E58333F583EB33FBEC33FCEB950BF5F0EC950C40061D
:090D0500FCABF0438201DADD22AF
:200D0E007901AA82E68F82B5821318E6B5F00E18E6B5830918E68A82B58202790022B480DC
:200D2E000FE5F0700AE5837006E58270027F00EFB6801518B6001018B6000B18B600060844
:090D4E00080876002208080822BA
:200D5700120F5B700AE582458345F0700122E430D112F4700BE5F0F47006E58330E7012248
:140D770090800022700AE5F07006E58320E70122907FFF22AF
:0D0D8B00AC83AB827A007900748E020EE911
:200D9800B98003EA13B34010EA2401FAE43BFBE43CFC50047C800582BC000EBB000BBA009F
:200DB80008E4F5F0F583F58222A2D1E582138CF092F78B838A8222E4F583F58275F080F45F
:0F0DD800A2D11322E4F583F58275F0C0747F2257
:1A0DE700E582C583F582A2D133A2D592D11392D5ECCFFCEBCEFBEACDFA2294
:200E0100120A9F30D502B2D1BF0009BC0003020DDC020DCFBC0003020DB9E583B4FF0BE5AA
:200E210082B4FF03020DDC020DB9E582B4FF03020DCFC395835007247F400B020DB924803F
:200E4100145003020DCFF582C3ED9AEE9BEF9C40111582C3EA33F9EB33FAEC33FBE433FC71
:200E61008005E4CCCBCAF9C08275F019C3E99DEA9EEB9FEC9400D5F002802D400EE99DF9D2
:200E8100EA9EFAEB9FFBEC9400FCC3B3E833F8E58233F582E58333F583C3E933F9EA33FA32
:200EA100EB33FBEC33FC80C4B3E4F938FAE43582FBE43583FCD082500405827C80120ACDB7
:030EC100020DB06F
:0D002900758152120FC8E5826003020026A7
:1C0EC40020F71430F6148883A88220F507E6A88375830022E280F7E49322E0223D
:200EE000FCABF0AA83A982749EF582C2D1EC30E716D2D1E9F42401F9EAF43400FAEBF43411
:0D0F000000FBECF43400FC120ACD020D9849
:0B0F0D00A8811818C6B2E7C6020C8CC1
:200F18006040F82582500274FFF582E824F8501ECCCBCAF9E4CC24F85014CBCAF9E4CB24E1
:200F3800F8500BCAF9E4CA24F8500379002224086010F8C3EC13FCEB13FBEA13FAE913F994
:030F5800D8F122AB
:200F5B00120FB6C3749E958240397900120F1830D126E9F42401F582EAF43400F583EBF47F
:200F7B003400F5F0ECF43400700AE582458345F0700122E430E70F22EC20E71489828A836D
:1B0F9B008BF02230D10AE4F582F583F5F074802274FFF582F583F5F0747F2269
:120FB600AA82AB83A2F73392D1F5826002D2F7ACF02240
:040FC800758200220C
:00000001FF
