:06000000020029020C2899
:01000B0032C2
:0100130032BA
:01001B0032B2
:03002300020BE8E5
:0300930002002642
:0300260002024192
:20009600AE82AF837C007D00C3EC9EED64808FF063F08095F05027C2C19001F4C007C006EE
:2000B600C005C004120C57D2C19001F4120C57D004D005D006D0070CBC00CD0D80CA2290AB
:2000D6000004120096754258754302D206E4F544F54575464875474375820112076B3003B5
:2000F60014E4F50BF50CF50DF50E90002275F040120844D204754284754303C206E4F54486
:20011600F54575464875474375820012076B300014E4F50BF50CF50DF50E90002275F0408D
:20013600120844D20222754264754300C206E4F544F54575469675474375820112076B9007
:20015600000A120C57754264754300D206E4F544F54575469675474375820112076B9000AC
:200176000A020C57754232754300C206E4F544F5457546AF75474375820112076B9003E8DA
:20019600120C57754232754300D206E4F544F5457546AF75474375820102076B7542B4754F
:2001B6004300D206E4F544F5457546C875474375820012076B9003E8120C5775424075431B
:2001D60001D206E4F544F5457546C875474375820012076B90000A020C577542FA75430074
:2001F600C206E4F544F5457546AF75474375820112076B9003E8120C577542FA754300D2BA
:2002160006E4F544F5457546AF75474375820102076B7542F4754301C206E4F544F545759E
:2002360046E175474375820002076B43947F859393120B6E120C2190103A75F080120B8EE2
:20025600900064120C57E4F50BF50CF50DF50E90002275F0401208441200D5D202D20430BF
:1902760002F93004F690000212009612017A1201B21201F012022880E21D
:0E103A007374617274210D0A00000000000042
:0A008200C200C201C202C203C204A0
:20028F00AC82AD83AEF0FF74ECC0E07451C0E07438C0E0743DC0E08C828D838EF0EF120EA7
:2002AF006FAC82AD83AEF0FFE58124FCF581E4C0E0C0E0C0E0743FC0E08C828D838EF0EF27
:2002CF00120CFAAC82AD83AEF0FFE58124FCF5818C828D838EF0EF020DC5AC82AD83AEF0A5
:2002EF00FFE4C0E0C0E074B4C0E07442C0E08C828D838EF0EF120E6FAC82AD83AEF0FFE5B4
:20030F008124FCF581E4C0E0C0E074FAC0E07444C0E08C828D838EF0EF120A6AAC82AD83BE
:20032F00AEF0FFE58124FCF581C004C005C006C00790000075F080743F120E6FAC82AD83EA
:20034F00AEF0FFE58124FCF581C004C005C006C00790500075F0C37447120A6AAC82AD8338
:20036F00AEF0FFE58124FCF581E4C0E0C0E0C0E07440C0E08C828D838EF0EF120E6FAC8275
:20038F00AD83AEF0FFE58124FCF5818C828D838EF0EF020DC5AC82AD83AEF0FFC007C0069E
:2003AF00C005C004E4C0E0C0E074A0C0E023C0E08C828D838EF0EF120CCAAB82E58124FCE4
:2003CF00F581D004D005D006D007EB60087C007D007EA07F41C007C006C005C004C004C07E
:2003EF0005C006C00790000075F07A7444120CCAAB82E58124FCF581D004D005D006D007CE
:20040F00EB60087C007D007E7A7F44E4C0E0C0E074A0C0E023C0E08C828D838EF0EF120F7F
:20042F007BAC82AD83AEF0FFE58124FCF581E4C0E0C0E074C8C0E07442C0E08C828D838E39
:20044F00F0EF120E6F85822E85832F85F030F531E58124FCF581E4C0E0C0E074A0C0E023F1
:20046F00C0E0852E82852F838530F0E531120CFAA882A983AAF0FBE58124FCF581E4F5329C
:20048F00F533C3E5329464E53364809480400122853282853383C003C002C001C000120D47
:2004AF00F9AC82AD83AEF0FFC02EC02FC030C0318C828D838EF0EF120A6AAC82AD83AEF06E
:2004CF00FFE58124FCF581D000D001D002D003C003C002C001C000C004C005C006C0078828
:2004EF008289838AF0EB120CFA85823485833585F036F537E58124FCF581D000D001D00224
:20050F00D003E5322532FEE53333FFEE2401FEEF3400FF8534828535838536F0E537C0070A
:20052F00C006C003C002C001C0001202E9AC82AD83D000D001D002D003D006D0078E828FF3
:20054F0083ECF0EDA3F00532E4B532020533020491AF82A293B39200A294B39201A2B3B3AB
:20056F009203300106C202900001223003072004049000012230000720020490000122EF15
:20058F00701AC281853882853983C007120C99D281853882853983120C99D007BF011AC284
:2005AF0084853882853983C007120C99D284853882853983120C99D007BF0216C28685386A
:2005CF0082853983120C99C286853882853983120C9990000022AF827D007E008D038E0413
:2005EF00C3EB953AEC953B5036300804900001229000C7E0F538A3E0F5398F82C007C0068B
:20060F00C005120560E5828583F0D005D006D00745F06004900001220DBD00C00E80BD90FD
:20062F00000022AF82750B64750C00853C82853D83C007120D53AD82AE83D00720050302D1
:20064F0006DCE4F53EF53FC3E53E9464E53F6480948040030206DCE53E253EF9E53F33FA6D
:20066F00E92401F9EA3400FA78007C00C3E89DEC64808EF063F08095F05047300804900007
:20068F00012289828A83E0F538A3E0F5398F82C007C006C005C004C002C001C00012056071
:2006AF00E5828583F0D000D001D002D004D005D006D00745F060049000012208B800AD0C3E
:2006CF0080AA053EE4B53E02053F020656300503020767754063754100E54130E703020764
:2006EF0067E5402540F9E54133FAE92401F9EA3400FA78007C00C3E89DEC64808EF063F0B2
:20070F008095F050473008049000012289828A83E0F538A3E0F5398F82C007C006C005C046
:20072F0004C002C001C000120560E5828583F0D000D001D002D004D005D006D00745F0602F
:20074F00049000012208B800AD0C80AA154074FFB5400215410206E890000022AF82854281
:20076F0082854383C007120DF912028FAD82AE83D007ED2DFDEE33FEC3ED9490EE94014017
:20078F00127BC87C008B488C49ED2470F8EE34FEFA8013EEC313CD13CDFE8D038E048D4845
:2007AF008E4978007A00E84A7002F8FAA2069280C282A20692838544828545838546F0E5D8
:2007CF0047C007C004C003C002C0001203A4D000D002D003D004D0072008208B3C8C3DD270
:2007EF00058F82C007C002C000120632E5828583F0D000D002D00745F060012220081688EB
:20080F003A8A3B8F82C0071205E5E5828583F0D00745F060012220081685483C85493DC2F4
:20082F00058F82120632E5828583F045F06001221008012222AD82AE83AFF0E50B120C2B9D
:20084F00A3E50C120C2B74022DFDE43EFE8D828E838FF0E50D120C2BA3E50E020C2BAD8214
:20086F00AE83AFF0E50B120C2BA3E50C120C2B74022DFDE43EFE8D828E838FF0E50D120C14
:20088F002BA3E50E020C2B85824D85834E85F04FAA4AAB4BAC4C8A828B838CF0120F32F81E
:2008AF00A3120F32F9854D82854E83854FF0120F32FEA3120F32FFE8C39EF550E99FF5512A
:2008CF0074022AFDE43BFE8C078D828E838FF0120F32F557A3120F32F5587402254DF5540A
:2008EF00E4354EF555854F568554828555838556F0120F32F8A3120F32F9E557C398F55273
:20090F00E55899F553C3E4955074808551F063F08095F05033855042855143D206E4F54464
:20092F00F5457546C8754742758200C007C006C005C004C003C00212076BD002D003D0045E
:20094F00D005D006D0078036C3E49550F542E49551F543C206E4F544F5457546C8754742EB
:20096F00758200C007C006C005C004C003C00212076BD002D003D004D005D006D0079000C7
:20098F0064C007C006C005C004C003C002120C57D002D003D004D005D006D007C3E495524B
:2009AF0074808553F063F08095F05033855242855343C206E4F544F5457546C87547427548
:2009CF008201C007C006C005C004C003C00212076BD002D003D004D005D006D0078036C3F2
:2009EF00E49550F542E49551F543D206E4F544F5457546C8754742758201C007C006C005EC
:200A0F00C004C003C00212076BD002D003D004D005D006D0078A828B838CF0120F32FAA379
:200A2F00120F32FB854D82854E83854FF0EA120C2BA3EB120C2B8D828E838FF0120F32FDF2
:1B0A4F00A3120F32FE8554828555838556F0ED120C2BA3EE120C2B9000002253
:200A6A00120B0DBC0003020E27EF60FA30D502B2D1E583B4FF03020E3DE582B4FF03020EE1
:200A8A003D258340072482400B020E272483145003020E3DF582EA8DF0A4A8F0EA8EF0A477
:200AAA0028F8E435F0F9EB8DF0A428E935F0F9E433CA8FF0A429F9EA35F0FAEBF88EF0A49B
:200ACA0029F9EA35F0FAE433FBEC8DF0A429F9EA35F0FAE43BFBE88FF0A42AFAEB35F0FB43
:200AEA00E433CCFD8EF0A42AFAEB35F0FBE43CFCED8FF0A42BFBEC35F0FC20E703120B3BFA
:030B0A00020E06D2
:200B0D00AA82AB83A2F73392D1F5826002D2F7ACF0E58124F9F8E6FD08E6FE0886F008E64B
:0E0B2D00A2F73392D5F5836002D2F7AFF02223
:06005800E478FFF6D8FD7C
:200B3B007804EC7011E58224F8500AF582E4C9CACBFCD8EF22EC7820058220E713D58201B9
:130B5B0022C3E933F9EA33FAEB33FBEC33FCD8EA158222C7
:200036007905E94400601B7A0190104378D375A000E493F2A308B8000205A0D9F4DAF27545
:02005600A0FF09
:05008C00750800C20729
:200B6E00759850438E01438E0475D7D075D6FF438E10D2AFD2AC2285829910990280FB2213
:200B8E00AD82AE83AFF08D828E838FF0120F32FC60188C820DBD00010EC007C006C0051297
:200BAE000B85D005D006D00780DC22AF8275825AC007120B857582A5120B85758204120B56
:200BCE0085758280120B85D0078F82120B85850982120B85850A82020B85C0E0C082C08365
:200BEE00C007C0D075D000109802801CE508FF04F508EF24C9F582E43400F583E599F07453
:130C0E00F625085003750800D0D0D007D083D082D0E032E2
:02009100C208A3
:0A0C2100C288D2A8D2AF22D2083256
:1B0C2B0020F71130F6138883A88220F509F6A8837583002280FEF280F5F022C8
:200C4600438E805389F0758A40758CA2C28DD28C22AE82AF837C007D00C3EC9EED9F50211B
:200C6600C007C006C005C004120C46D004D005D006D007308DFDC28CC28D0CBC00DB0D8017
:200C8600D822438E4053890F758B40758DFFC28FD28E22AE82AF837C007D00C3EC9EED9F10
:200CA6005021C007C006C005C004120C88D004D005D006D007308FFDC28EC28F0CBC00DBAB
:040CC6000D80D822A3
:200CCA00FFA8811818120D9AD2D133E6400730E70B7582002220E70675820122C2D1120DE2
:100CEA007CE97003F5822220D101B3E433F5822234
:200CFA00120B0D7900E583B58202800D5003120E55E583C39582120F86E5D0C465D020E1A9
:200D1A0017EA2DFAEB3EFBEC3FFC50097401120F86EC4480FC020E06C3EA9DFAEB9EFBEC5B
:190D3A009FFC500FC3E499F9E49AFAE49BFBE49CFCB2D1120B3B020E060E
:20005E007800E84400600A790175A000E4F309D8FC78D2E84400600C7901900001E4F0A3CD
:04007E00D8FCD9FAD7
:200D53007A10E4FBFCE58225E0F582E58333F583EB33FBEC33FCEB950BF5F0EC950C4006AE
:090D7300FCABF0438201DADD2241
:200D7C007901AA82E68F82B5821318E6B5F00E18E6B5830918E68A82B58202790022B4806E
:200D9C000FE5F0700AE5837006E58270027F00EFB6801518B6001018B6000B18B6000608D6
:090DBC000808760022080808224C
:200DC500120FC9700AE582458345F0700122E430D112F4700BE5F0F47006E58330E701226C
:140DE50090800022700AE5F07006E58320E70122907FFF2241
:0D0DF900AC83AB827A007900748E020F5734
:200E0600B98003EA13B34010EA2401FAE43BFBE43CFC50047C800582BC000EBB000BBA0030
:200E260008E4F5F0F583F58222A2D1E582138CF092F78B838A8222E4F583F58275F080F4F0
:0F0E4600A2D11322E4F583F58275F0C0747F22E8
:1A0E5500E582C583F582A2D133A2D592D11392D5ECCFFCEBCEFBEACDFA2225
:200E6F00120B0D30D502B2D1BF0009BC0003020E4A020E3DBC0003020E27E583B4FF0BE580
:200E8F0082B4FF03020E4A020E27E582B4FF03020E3DC395835007247F400B020E27248015
:200EAF00145003020E3DF582C3ED9AEE9BEF9C40111582C3EA33F9EB33FAEC33FBE433FC94
:200ECF008005E4CCCBCAF9C08275F019C3E99DEA9EEB9FEC9400D5F002802D400EE99DF964
:200EEF00EA9EFAEB9FFBEC9400FCC3B3E833F8E58233F582E58333F583C3E933F9EA33FAC4
:200F0F00EB33FBEC33FC80C4B3E4F938FAE43582FBE43583FCD082500405827C80120B3BD9
:030F2F00020E1E91
:0D002900758158121036E582600302002632
:1C0F320020F71430F6148883A88220F507E6A88375830022E280F7E49322E022CE
:200F4E00FCABF0AA83A982749EF582C2D1EC30E716D2D1E9F42401F9EAF43400FAEBF434A2
:0D0F6E0000FBECF43400FC120B3B020E06FD
:0B0F7B00A8811818C6B2E7C6020CFAE5
:200F86006040F82582500274FFF582E824F8501ECCCBCAF9E4CC24F85014CBCAF9E4CB2473
:200FA600F8500BCAF9E4CA24F8500379002224086010F8C3EC13FCEB13FBEA13FAE913F926
:030FC600D8F1223D
:200FC900121024C3749E958240397900120F8630D126E9F42401F582EAF43400F583EBF434
:200FE9003400F5F0ECF43400700AE582458345F0700122E430E70F22EC20E71489828A83FF
:1B1009008BF02230D10AE4F582F583F5F074802274FFF582F583F5F0747F22FA
:12102400AA82AB83A2F73392D1F5826002D2F7ACF022D1
:04103600758200229D
:00000001FF
