:06000000020029020BBC06
:01000B0032C2
:0100130032BA
:01001B0032B2
:03002300020B7C51
:0300A40002002631
:0300260002018A4A
:2000A700AE82AF837C007D00C3EC9EED64808FF063F08095F05027C2C19001F4C007C006DD
:2000C700C005C004120BD0D2C19001F4120BD0D004D005D006D0070CBC00CD0D80CA2290AA
:2000E70000041200A7754258754302C208E4F544F54575464875474375820112092B3003DF
:2001070002D205754258754302D208E4F544F54575464875474375820212092B300402D2BC
:2001270006754284754303D208E4F544F54575464875474375820012092B10010122120204
:2001470047D20222754264754300D208E4F544F54575469675474375820112092B90000A2F
:20016700120BD0754264754300C208E4F544F54575469675474375820112092B90000A026D
:200187000BD02243947F859393120B02120BB5900FB375F080120B22900064120BD0120000
:2001A700E63002FD3005FA750900750A00758203120B4D9000021200A77528327529007566
:2001C7002A32752B00752C90752D01900000120255E4F528F529F52AF52B752CF4752D01B9
:2001E7009000001202557528C8752900752AC8752B00752C90752D01900190120255E4F5BE
:2002070028F529F52AF52B752CF4752D01900190120255E4F528F529F52AF52B752CF47528
:200227002D01900294120255E4F528F529F52AF52B752C26752D029000001202550201A88D
:0E0FB3007374617274210D0A000000000000CA
:1B008200E4F522F523F524F525F526F527C200C201C202C203C204C205C20683
:20024700E4F522F523F524F525F526F52722AE82AF83EEC39522FCEF9523FDE528C3952405
:20026700FAE5299525FBE52AC39526F8E52B9527F9EC4D700302033AC3E49C74808DF0636E
:20028700F08095F05052852C82852D83C007C006C005C004C003C002C001C000120D3E855A
:2002A700824485834585F046F547D000D001D002D003D004D0058C428D43C208758200C01F
:2002C70003C002C001C00012092BD000D001D002D003D006D0078057C3E49CFCE49DFD857F
:2002E7002C82852D83C007C006C005C004C003C002C001C000120D3E85824485834585F08E
:2003070046F547D000D001D002D003D004D0058C428D43D208758200C003C002C001C000F0
:2003270012092BD000D001D002D003D006D0078E228F23EA4B70030203CEC3E49A74808BE0
:20034700F063F08095F0503A852C82852D83C003C002C001C000120D3E85824485834585DC
:20036700F046F547D000D001D002D0038A428B43D208758201C001C00012092BD000D001EA
:20038700803FC3E49AFAE49BFB852C82852D83C003C002C001C000120D3E8582448583457F
:2003A70085F046F547D000D001D002D0038A428B43C208758201C001C00012092BD000D036
:2003C70001852824852925E849606DC3E498748089F063F08095F0502A852C82852D83C0CD
:2003E70001C000120D3E85824485834585F046F547D000D00188428943C208758201120935
:200407002B802FC3E498F8E499F9852C82852D83C001C000120D3E85824485834585F046B5
:20042700F547D000D00188428943D20875820112092B852A26852B2722AC82AD83AEF0FF61
:2004470074ECC0E07451C0E07438C0E0743DC0E08C828D838EF0EF120DE8AC82AD83AEF005
:20046700FFE58124FCF581E4C0E0C0E0C0E0743FC0E08C828D838EF0EF120C73AC82AD83E9
:20048700AEF0FFE58124FCF5818C828D838EF0EF020D4BAC82AD83AEF0FFE4C0E0C0E07444
:2004A700B4C0E07442C0E08C828D838EF0EF120DE8AC82AD83AEF0FFE58124FCF581E4C05E
:2004C700E0C0E074FAC0E07444C0E08C828D838EF0EF1209FEAC82AD83AEF0FFE58124FC0A
:2004E700F581C004C005C006C00790000075F080743F120DE8AC82AD83AEF0FFE58124FCB9
:20050700F581C004C005C006C00790500075F0C374471209FEAC82AD83AEF0FFE58124FCEB
:20052700F581E4C0E0C0E0C0E07440C0E08C828D838EF0EF120DE8AC82AD83AEF0FFE58133
:2005470024FCF5818C828D838EF0EF020D4BAC82AD83AEF0FFC007C006C005C004E4C0E084
:20056700C0E074A0C0E023C0E08C828D838EF0EF120C43AB82E58124FCF581D004D005D0CF
:2005870006D007EB60087C007D007EA07F41C007C006C005C004C004C005C006C007900091
:2005A7000075F07A7444120C43AB82E58124FCF581D004D005D006D007EB60087C007D0071
:2005C7007E7A7F44E4C0E0C0E074A0C0E023C0E08C828D838EF0EF120EF4AC82AD83AEF023
:2005E700FFE58124FCF581E4C0E0C0E074C8C0E07442C0E08C828D838EF0EF120DE885820A
:200607002E85832F85F030F531E58124FCF581E4C0E0C0E074A0C0E023C0E0852E82852F23
:20062700838530F0E531120C73A882A983AAF0FBE58124FCF581E4F532F533C3E5329464F8
:20064700E53364809480400122853282853383C003C002C001C000120D3EAC82AD83AEF04D
:20066700FFC02EC02FC030C0318C828D838EF0EF1209FEAC82AD83AEF0FFE58124FCF5811B
:20068700D000D001D002D003C003C002C001C000C004C005C006C007888289838AF0EB1264
:2006A7000C7385823485833585F036F537E58124FCF581D000D001D002D003E5322532FEB7
:2006C700E53333FFEE2401FEEF3400FF8534828535838536F0E537C007C006C003C002C085
:2006E70001C00012049AAC82AD83D000D001D002D003D006D0078E828F83ECF0EDA3F005AE
:2007070032E4B532020533020642AF82A293B39200A294B39201A2B3B39203300006C20293
:2007270090000122300307200504900001223001072002049000012230010C300209E4F587
:2007470022F523F524F525EF701AC281853882853983C007120C12D281853882853983120D
:200767000C12D007BF011AC284853882853983C007120C12D284853882853983120C12D010
:2007870007BF0216C286853882853983120C12C286853882853983120C1290000022AF82A1
:2007A7007D007E008D038E04C3EB953AEC953B5036300A04900001229000C7E0F538A3E07E
:2007C700F5398F82C007C006C005120711E5828583F0D005D006D00745F06004900001222A
:2007E7000DBD00C00E80BD90000022AF82750B64750C00853C82853D83C007120CCCAD826D
:20080700AE83D00720070302089CE4F53EF53FC3E53E9464E53F64809480400302089CE5E6
:200827003E253EF9E53F33FAE92401F9EA3400FA78007C00C3E89DEC64808EF063F08095B5
:20084700F05047300A049000012289828A83E0F538A3E0F5398F82C007C006C005C004C05C
:2008670002C001C000120711E5828583F0D000D001D002D004D005D006D00745F060049073
:2008870000012208B800AD0C80AA053EE4B53E02053F0208163007030209277540637541D1
:2008A70000E54130E703020927E5402540F9E54133FAE92401F9EA3400FA78007C00C3E82B
:2008C7009DEC64808EF063F08095F05047300A049000012289828A83E0F538A3E0F5398FE1
:2008E70082C007C006C005C004C002C001C000120711E5828583F0D000D001D002D004D076
:2009070005D006D00745F060049000012208B800AD0C80AA154074FFB5400215410208A868
:2009270090000022AF82854282854383C007120D3E120440AD82AE83D007C3ED9490EE9432
:200947000140127BC87C008B488C49ED2470F8EE34FEFA8013EEC313CD13CDFE8D038E041F
:200967008D488E4978007A00E84A7002F8FAA2089280C282A208928385448285458385461A
:20098700F0E547C007C004C003C002C000120555D000D002D003D004D007200A208B3C8C3B
:2009A7003DD2078F82C007C002C0001207F2E5828583F0D000D002D00745F0600122200AFB
:2009C70016883A8A3B8F82C0071207A5E5828583F0D00745F0600122200A1685483C8549D8
:1709E7003DC2078F821207F2E5828583F045F0600122100A01222261
:2009FE00120AA1BC0003020DA0EF60FA30D502B2D1E583B4FF03020DB6E582B4FF03020DCC
:200A1E00B6258340072482400B020DA02483145003020DB6F582EA8DF0A4A8F0EA8EF0A47A
:200A3E0028F8E435F0F9EB8DF0A428E935F0F9E433CA8FF0A429F9EA35F0FAEBF88EF0A407
:200A5E0029F9EA35F0FAE433FBEC8DF0A429F9EA35F0FAE43BFBE88FF0A42AFAEB35F0FBAF
:200A7E00E433CCFD8EF0A42AFAEB35F0FBE43CFCED8FF0A42BFBEC35F0FC20E703120ACFD3
:030A9E00020D7FC7
:200AA100AA82AB83A2F73392D1F5826002D2F7ACF0E58124F9F8E6FD08E6FE0886F008E6B8
:0E0AC100A2F73392D5F5836002D2F7AFF02290
:06005800E478FFF6D8FD7C
:200ACF007804EC7011E58224F8500AF582E4C9CACBFCD8EF22EC7820058220E713D5820126
:130AEF0022C3E933F9EA33FAEB33FBEC33FCD8EA15822234
:200036007905E94400601B7A01900FBC78D375A000E493F2A308B8000205A0D9F4DAF275CD
:02005600A0FF09
:05009D00750800C20916
:200B0200759850438E01438E0475D7D075D6FF438E10D2AFD2AC2285829910990280FB227F
:200B2200AD82AE83AFF08D828E838FF0120EABFC60188C820DBD00010EC007C006C005128B
:200B42000B19D005D006D00780DC22AF8275825AC007120B197582A5120B19758204120B06
:200B620019758280120B19D0078F82120B19850982120B19850A82020B19C0E0C082C083ED
:200B8200C007C0D075D000109802801CE508FF04F508EF24C9F582E43400F583E599F074BF
:130BA200F625085003750800D0D0D007D083D082D0E0324F
:0200A200C20A90
:0A0BB500C288D2A8D2AF22D20A32C1
:200BBF00438E805389F0758A40758CA2C28DD28C22AE82AF837C007D00C3EC9EED9F5021A3
:200BDF00C007C006C005C004120BBFD004D005D006D007308DFDC28CC28D0CBC00DB0D8027
:200BFF00D822438E4053890F758B40758DFFC28FD28E22AE82AF837C007D00C3EC9EED9F98
:200C1F005021C007C006C005C004120C01D004D005D006D007308FFDC28EC28F0CBC00DBB9
:040C3F000D80D8222A
:200C4300FFA8811818120D13D2D133E6400730E70B7582002220E70675820122C2D1120CF1
:100C6300F5E97003F5822220D101B3E433F5822242
:200C7300120AA17900E583B58202800D5003120DCEE583C39582120EFFE5D0C465D020E1AD
:200C930017EA2DFAEB3EFBEC3FFC50097401120EFFEC4480FC020D7FC3EA9DFAEB9EFBECF3
:190CB3009FFC500FC3E499F9E49AFAE49BFBE49CFCB2D1120ACF020D7F8B
:20005E007800E84400600A790175A000E4F309D8FC78D2E84400600C7901900001E4F0A3CD
:04007E00D8FCD9FAD7
:200CCC007A10E4FBFCE58225E0F582E58333F583EB33FBEC33FCEB950BF5F0EC950C400636
:090CEC00FCABF0438201DADD22C9
:200CF5007901AA82E68F82B5821318E6B5F00E18E6B5830918E68A82B58202790022B480F6
:200D15000FE5F0700AE5837006E58270027F00EFB6801518B6001018B6000B18B60006085D
:090D3500080876002208080822D3
:0D0D3E00AC83AB827A007900748E020ED077
:200D4B00120F42700AE582458345F0700122E430D112F4700BE5F0F47006E58330E701226D
:140D6B0090800022700AE5F07006E58320E70122907FFF22BB
:200D7F00B98003EA13B34010EA2401FAE43BFBE43CFC50047C800582BC000EBB000BBA00B8
:200D9F0008E4F5F0F583F58222A2D1E582138CF092F78B838A8222E4F583F58275F080F478
:0F0DBF00A2D11322E4F583F58275F0C0747F2270
:1A0DCE00E582C583F582A2D133A2D592D11392D5ECCFFCEBCEFBEACDFA22AD
:200DE800120AA130D502B2D1BF0009BC0003020DC3020DB6BC0003020DA0E583B4FF0BE50D
:200E080082B4FF03020DC3020DA0E582B4FF03020DB6C395835007247F400B020DA02480BC
:200E2800145003020DB6F582C3ED9AEE9BEF9C40111582C3EA33F9EB33FAEC33FBE433FCA3
:200E48008005E4CCCBCAF9C08275F019C3E99DEA9EEB9FEC9400D5F002802D400EE99DF9EB
:200E6800EA9EFAEB9FFBEC9400FCC3B3E833F8E58233F582E58333F583C3E933F9EA33FA4B
:200E8800EB33FBEC33FC80C4B3E4F938FAE43582FBE43583FCD082500405827C80120ACFCE
:030EA800020D97A1
:0D002900758149120FAFE5826003020026C9
:1C0EAB0020F71430F6148883A88220F507E6A88375830022E280F7E49322E02256
:200EC700FCABF0AA83A982749EF582C2D1EC30E716D2D1E9F42401F9EAF43400FAEBF4342A
:0D0EE70000FBECF43400FC120ACF020D7F7A
:0B0EF400A8811818C6B2E7C6020C73F4
:200EFF006040F82582500274FFF582E824F8501ECCCBCAF9E4CC24F85014CBCAF9E4CB24FB
:200F1F00F8500BCAF9E4CA24F8500379002224086010F8C3EC13FCEB13FBEA13FAE913F9AD
:030F3F00D8F122C4
:200F4200120F9DC3749E958240397900120EFF30D126E9F42401F582EAF43400F583EBF4CB
:200F62003400F5F0ECF43400700AE582458345F0700122E430E70F22EC20E71489828A8386
:1B0F82008BF02230D10AE4F582F583F5F074802274FFF582F583F5F0747F2282
:120F9D00AA82AB83A2F73392D1F5826002D2F7ACF02259
:040FAF007582002225
:00000001FF
