:06000000020029020B9A28
:01000B0032C2
:0100130032BA
:01001B0032B2
:03002300020B5A73
:0300A00002002635
:030026000201686C
:2000A300AE82AF837C007D00C3EC9EED64808FF063F08095F05027C2C19001F4C007C006E1
:2000C300C005C004120BAED2C19001F4120BAED004D005D006D0070CBC00CD0D80CA2290F2
:2000E30000041200A3754258754302D206E4F544F5457546487547437582011209093003FB
:2001030002D204754284754303D206E4F544F545754648754743758200120909100101228E
:20012300120225D20222754264754300C206E4F544F545754696754743758201120909909F
:20014300000A120BAE754264754300D206E4F544F5457546967547437582011209099000C9
:200163000A020BAE2243947F859393120AE0120B93900F9175F080120B00900064120BAEF7
:200183001200E23002FD3004FA750900750A00758203120B2B9000021200A3752832752918
:2001A30000752A32752B00752C90752D01900000120233E4F528F529F52AF52B752CF475B8
:2001C3002D019000001202337528C8752900752AC8752B00752C90752D01900190120233D1
:2001E300E4F528F529F52AF52B752CF4752D01900190120233E4F528F529F52AF52B752CFF
:20020300F4752D01900294120233E4F528F529F52AF52B752C26752D029000001202330235
:02022300018652
:0E0F91007374617274210D0A000000000000EC
:17008200E4F522F523F524F525F526F527C200C201C202C203C20416
:20022500E4F522F523F524F525F526F52722AE82AF83EEC39522FCEF9523FDE528C3952427
:20024500FAE5299525FBE52AC39526F8E52B9527F9EC4D7003020318C3E49C74808DF063B2
:20026500F08095F05052852C82852D83C007C006C005C004C003C002C001C000120D1C859E
:20028500824485834585F046F547D000D001D002D003D004D0058C428D43C206758200C043
:2002A50003C002C001C000120909D000D001D002D003D006D0078057C3E49CFCE49DFD85C3
:2002C5002C82852D83C007C006C005C004C003C002C001C000120D1C85824485834585F0D2
:2002E50046F547D000D001D002D003D004D0058C428D43D206758200C003C002C001C00015
:20030500120909D000D001D002D003D006D0078E228F23EA4B70030203ACC3E49A74808B46
:20032500F063F08095F0503A852C82852D83C003C002C001C000120D1C8582448583458520
:20034500F046F547D000D001D002D0038A428B43C206758201C001C000120909D000D00140
:20036500803FC3E49AFAE49BFB852C82852D83C003C002C001C000120D1C858244858345C3
:2003850085F046F547D000D001D002D0038A428B43D206758201C001C000120909D000D06C
:2003A50001852824852925E849606DC3E498748089F063F08095F0502A852C82852D83C0EF
:2003C50001C000120D1C85824485834585F046F547D000D00188428943C20675820112097B
:2003E50009802FC3E498F8E499F9852C82852D83C001C000120D1C85824485834585F0461C
:20040500F547D000D00188428943D206758201120909852A26852B2722AC82AD83AEF0FFA7
:2004250074ECC0E07451C0E07438C0E0743DC0E08C828D838EF0EF120DC6AC82AD83AEF049
:20044500FFE58124FCF581E4C0E0C0E0C0E0743FC0E08C828D838EF0EF120C51AC82AD832D
:20046500AEF0FFE58124FCF5818C828D838EF0EF020D29AC82AD83AEF0FFE4C0E0C0E07488
:20048500B4C0E07442C0E08C828D838EF0EF120DC6AC82AD83AEF0FFE58124FCF581E4C0A2
:2004A500E0C0E074FAC0E07444C0E08C828D838EF0EF1209DCAC82AD83AEF0FFE58124FC4E
:2004C500F581C004C005C006C00790000075F080743F120DC6AC82AD83AEF0FFE58124FCFD
:2004E500F581C004C005C006C00790500075F0C374471209DCAC82AD83AEF0FFE58124FC30
:20050500F581E4C0E0C0E0C0E07440C0E08C828D838EF0EF120DC6AC82AD83AEF0FFE58177
:2005250024FCF5818C828D838EF0EF020D29AC82AD83AEF0FFC007C006C005C004E4C0E0C8
:20054500C0E074A0C0E023C0E08C828D838EF0EF120C21AB82E58124FCF581D004D005D013
:2005650006D007EB60087C007D007EA07F41C007C006C005C004C004C005C006C0079000B3
:200585000075F07A7444120C21AB82E58124FCF581D004D005D006D007EB60087C007D00B5
:2005A5007E7A7F44E4C0E0C0E074A0C0E023C0E08C828D838EF0EF120ED2AC82AD83AEF067
:2005C500FFE58124FCF581E4C0E0C0E074C8C0E07442C0E08C828D838EF0EF120DC685824E
:2005E5002E85832F85F030F531E58124FCF581E4C0E0C0E074A0C0E023C0E0852E82852F46
:20060500838530F0E531120C51A882A983AAF0FBE58124FCF581E4F532F533C3E53294643C
:20062500E53364809480400122853282853383C003C002C001C000120D1CAC82AD83AEF091
:20064500FFC02EC02FC030C0318C828D838EF0EF1209DCAC82AD83AEF0FFE58124FCF5815F
:20066500D000D001D002D003C003C002C001C000C004C005C006C007888289838AF0EB1286
:200685000C5185823485833585F036F537E58124FCF581D000D001D002D003E5322532FEFB
:2006A500E53333FFEE2401FEEF3400FF8534828535838536F0E537C007C006C003C002C0A7
:2006C50001C000120478AC82AD83D000D001D002D003D006D0078E828F83ECF0EDA3F005F2
:2006E50032E4B532020533020620AF82A293B39200A294B39201A2B3B39203300006C202D8
:2007050090000122300307200404900001223001072002049000012230010C300209E4F5AA
:2007250022F523F524F525EF701AC281853882853983C007120BF0D2818538828539831252
:200745000BF0D007BF011AC284853882853983C007120BF0D284853882853983120BF0D09B
:2007650007BF0216C286853882853983120BF0C286853882853983120BF090000022AF8209
:200785007D007E008D038E04C3EB953AEC953B5036300804900001229000C7E0F538A3E0A2
:2007A500F5398F82C007C006C0051206EFE5828583F0D005D006D00745F06004900001226F
:2007C5000DBD00C00E80BD90000022AF82750B64750C00853C82853D83C007120CAAAD82B1
:2007E500AE83D00720050302087AE4F53EF53FC3E53E9464E53F64809480400302087AE54F
:200805003E253EF9E53F33FAE92401F9EA3400FA78007C00C3E89DEC64808EF063F08095D7
:20082500F050473008049000012289828A83E0F538A3E0F5398F82C007C006C005C004C080
:2008450002C001C0001206EFE5828583F0D000D001D002D004D005D006D00745F0600490B8
:2008650000012208B800AD0C80AA053EE4B53E02053F0207F430050302090575406375413A
:2008850000E54130E703020905E5402540F9E54133FAE92401F9EA3400FA78007C00C3E86F
:2008A5009DEC64808EF063F08095F050473008049000012289828A83E0F538A3E0F5398F05
:2008C50082C007C006C005C004C002C001C0001206EFE5828583F0D000D001D002D004D0BB
:2008E50005D006D00745F060049000012208B800AD0C80AA154074FFB540021541020886AD
:2009050090000022AF82854282854383C007120D1C12041EAD82AE83D007C3ED9490EE9498
:200925000140127BC87C008B488C49ED2470F8EE34FEFA8013EEC313CD13CDFE8D038E0441
:200945008D488E4978007A00E84A7002F8FAA2069280C282A2069283854482854583854640
:20096500F0E547C007C004C003C002C000120533D000D002D003D004D0072008208B3C8C81
:200985003DD2058F82C007C002C0001207D0E5828583F0D000D002D00745F0600122200843
:2009A50016883A8A3B8F82C007120783E5828583F0D00745F060012220081685483C85491E
:1709C5003DC2058F821207D0E5828583F045F06001221008012222A9
:2009DC00120A7FBC0003020D7EEF60FA30D502B2D1E583B4FF03020D94E582B4FF03020D54
:2009FC0094258340072482400B020D7E2483145003020D94F582EA8DF0A4A8F0EA8EF0A403
:200A1C0028F8E435F0F9EB8DF0A428E935F0F9E433CA8FF0A429F9EA35F0FAEBF88EF0A429
:200A3C0029F9EA35F0FAE433FBEC8DF0A429F9EA35F0FAE43BFBE88FF0A42AFAEB35F0FBD1
:200A5C00E433CCFD8EF0A42AFAEB35F0FBE43CFCED8FF0A42BFBEC35F0FC20E703120AAD17
:030A7C00020D5D0B
:200A7F00AA82AB83A2F73392D1F5826002D2F7ACF0E58124F9F8E6FD08E6FE0886F008E6DA
:0E0A9F00A2F73392D5F5836002D2F7AFF022B2
:06005800E478FFF6D8FD7C
:200AAD007804EC7011E58224F8500AF582E4C9CACBFCD8EF22EC7820058220E713D5820148
:130ACD0022C3E933F9EA33FAEB33FBEC33FCD8EA15822256
:200036007905E94400601B7A01900F9A78D375A000E493F2A308B8000205A0D9F4DAF275EF
:02005600A0FF09
:05009900750800C2071C
:200AE000759850438E01438E0475D7D075D6FF438E10D2AFD2AC2285829910990280FB22A2
:200B0000AD82AE83AFF08D828E838FF0120E89FC60188C820DBD00010EC007C006C00512CF
:200B20000AF7D005D006D00780DC22AF8275825AC007120AF77582A5120AF7758204120A92
:200B4000F7758280120AF7D0078F82120AF7850982120AF7850A82020AF7C0E0C082C083BD
:200B6000C007C0D075D000109802801CE508FF04F508EF24C9F582E43400F583E599F074E1
:130B8000F625085003750800D0D0D007D083D082D0E03271
:02009E00C20896
:0A0B9300C288D2A8D2AF22D20832E5
:200B9D00438E805389F0758A40758CA2C28DD28C22AE82AF837C007D00C3EC9EED9F5021C5
:200BBD00C007C006C005C004120B9DD004D005D006D007308DFDC28CC28D0CBC00DB0D806B
:200BDD00D822438E4053890F758B40758DFFC28FD28E22AE82AF837C007D00C3EC9EED9FBA
:200BFD005021C007C006C005C004120BDFD004D005D006D007308FFDC28EC28F0CBC00DBFF
:040C1D000D80D8224C
:200C2100FFA8811818120CF1D2D133E6400730E70B7582002220E70675820122C2D1120C36
:100C4100D3E97003F5822220D101B3E433F5822286
:200C5100120A7F7900E583B58202800D5003120DACE583C39582120EDDE5D0C465D020E135
:200C710017EA2DFAEB3EFBEC3FFC50097401120EDDEC4480FC020D5DC3EA9DFAEB9EFBEC59
:190C91009FFC500FC3E499F9E49AFAE49BFBE49CFCB2D1120AAD020D5DF1
:20005E007800E84400600A790175A000E4F309D8FC78D2E84400600C7901900001E4F0A3CD
:04007E00D8FCD9FAD7
:200CAA007A10E4FBFCE58225E0F582E58333F583EB33FBEC33FCEB950BF5F0EC950C400658
:090CCA00FCABF0438201DADD22EB
:200CD3007901AA82E68F82B5821318E6B5F00E18E6B5830918E68A82B58202790022B48018
:200CF3000FE5F0700AE5837006E58270027F00EFB6801518B6001018B6000B18B600060880
:090D1300080876002208080822F5
:0D0D1C00AC83AB827A007900748E020EAEBB
:200D2900120F20700AE582458345F0700122E430D112F4700BE5F0F47006E58330E70122B1
:140D490090800022700AE5F07006E58320E70122907FFF22DD
:200D5D00B98003EA13B34010EA2401FAE43BFBE43CFC50047C800582BC000EBB000BBA00DA
:200D7D0008E4F5F0F583F58222A2D1E582138CF092F78B838A8222E4F583F58275F080F49A
:0F0D9D00A2D11322E4F583F58275F0C0747F2292
:1A0DAC00E582C583F582A2D133A2D592D11392D5ECCFFCEBCEFBEACDFA22CF
:200DC600120A7F30D502B2D1BF0009BC0003020DA1020D94BC0003020D7EE583B4FF0BE5B7
:200DE60082B4FF03020DA1020D7EE582B4FF03020D94C395835007247F400B020D7E248067
:200E0600145003020D94F582C3ED9AEE9BEF9C40111582C3EA33F9EB33FAEC33FBE433FCE7
:200E26008005E4CCCBCAF9C08275F019C3E99DEA9EEB9FEC9400D5F002802D400EE99DF90D
:200E4600EA9EFAEB9FFBEC9400FCC3B3E833F8E58233F582E58333F583C3E933F9EA33FA6D
:200E6600EB33FBEC33FC80C4B3E4F938FAE43582FBE43583FCD082500405827C80120AAD12
:030E8600020D75E5
:0D002900758149120F8DE5826003020026EB
:1C0E890020F71430F6148883A88220F507E6A88375830022E280F7E49322E02278
:200EA500FCABF0AA83A982749EF582C2D1EC30E716D2D1E9F42401F9EAF43400FAEBF4344C
:0D0EC50000FBECF43400FC120AAD020D5DE0
:0B0ED200A8811818C6B2E7C6020C5138
:200EDD006040F82582500274FFF582E824F8501ECCCBCAF9E4CC24F85014CBCAF9E4CB241D
:200EFD00F8500BCAF9E4CA24F8500379002224086010F8C3EC13FCEB13FBEA13FAE913F9D0
:030F1D00D8F122E6
:200F2000120F7BC3749E958240397900120EDD30D126E9F42401F582EAF43400F583EBF431
:200F40003400F5F0ECF43400700AE582458345F0700122E430E70F22EC20E71489828A83A8
:1B0F60008BF02230D10AE4F582F583F5F074802274FFF582F583F5F0747F22A4
:120F7B00AA82AB83A2F73392D1F5826002D2F7ACF0227B
:040F8D007582002247
:00000001FF
