:06000000020029020B7151
:01000B0032C2
:0100130032BA
:01001B0032B2
:03002300020B319C
:03009C0002002639
:03002600020229AA
:20009F00AE82AF837C007D00C3EC9EED64808FF063F08095F05027C2C19001F4C007C006E5
:2000BF00C005C004120B85D2C19001F4120B85D004D005D006D0070CBC00CD0D80CA229048
:2000DF00000412009F753E58753F02D206E4F540F5417542487543437582011208E0300345
:2000FF0002D204753E84753F03C206E4F540F5417542487543437582001208E030000512D2
:20011F0002CED20222753E64753F00C206E4F540F5417542967543437582011208E090004E
:20013F000A120B85753E64753F00D206E4F540F5417542967543437582011208E090000A2E
:20015F00020B85753E32753F00C206E4F540F5417542AF7543437582011208E09003E8125E
:20017F000B85753E32753F00D206E4F540F5417542AF7543437582010208E0753EB4753FB2
:20019F0000D206E4F540F5417542C87543437582001208E09003E8120B85753E40753F01E9
:2001BF00D206E4F540F5417542C87543437582001208E090000A020B85753EFA753F00C23F
:2001DF0006E4F540F5417542AF7543437582011208E09003E8120B85753EFA753F00D20602
:2001FF00E4F540F5417542AF7543437582010208E0753EF4753F01C206E4F540F541754224
:20021F00E17543437582000208E043947F859393120AB7120B6A900F6875F080120AD79038
:20023F000064120B851200DED202D2043002F93004F6750900750A00758203120B02900004
:20025F000212009F7526327527007528907529019000001202D8E4F526F5277528F47529D1
:20027F00019000001202D87526C87527007528907529019001901202D8E4F526F527752852
:20029F00F47529019001901202D8E4F526F5277528F47529019002941202D8E4F526F52727
:0F02BF007528267529029000001202D802024706
:0E0F68007374617274210D0A00000000000015
:13008200E4F522F523F524F525C200C201C202C203C20451
:2002CE00E4F522F523F524F52522AE82AF83EEC39522FCEF9523FDE526C39524FAE527951C
:2002EE0025FBEC4D7003020392C3E49C74808DF063F08095F05042852882852983C007C008
:20030E0006C005C004C003C002120CF385824085834185F042F543D002D003D004D0058C51
:20032E003E8D3FD206758200C003C0021208E0D002D003D006D0078047C3E49CFCE49DFD81
:20034E00852882852983C007C006C005C004C003C002120CF385824085834185F042F54304
:20036E00D002D003D004D0058C3E8D3FC206758200C003C0021208E0D002D003D006D007FB
:20038E008E228F23EA4B606DC3E49A74808BF063F08095F0502A852882852983C003C00284
:2003AE00120CF385824085834185F042F543D002D0038A3E8B3FC2067582011208E0802FFF
:2003CE00C3E49AFAE49BFB852882852983C003C002120CF385824085834185F042F543D015
:2003EE0002D0038A3E8B3FD2067582011208E085262485272522AC82AD83AEF0FF74ECC0E1
:20040E00E07451C0E07438C0E0743DC0E08C828D838EF0EF120D9DAC82AD83AEF0FFE58144
:20042E0024FCF581E4C0E0C0E0C0E0743FC0E08C828D838EF0EF120C28AC82AD83AEF0FF35
:20044E00E58124FCF5818C828D838EF0EF020D00AC82AD83AEF0FFE4C0E0C0E074B4C0E011
:20046E007442C0E08C828D838EF0EF120D9DAC82AD83AEF0FFE58124FCF581E4C0E0C0E0B6
:20048E0074FAC0E07444C0E08C828D838EF0EF1209B3AC82AD83AEF0FFE58124FCF581C0D8
:2004AE0004C005C006C00790000075F080743F120D9DAC82AD83AEF0FFE58124FCF581C03D
:2004CE0004C005C006C00790500075F0C374471209B3AC82AD83AEF0FFE58124FCF581E44C
:2004EE00C0E0C0E0C0E07440C0E08C828D838EF0EF120D9DAC82AD83AEF0FFE58124FCF5FD
:20050E00818C828D838EF0EF020D00AC82AD83AEF0FFC007C006C005C004E4C0E0C0E07409
:20052E00A0C0E023C0E08C828D838EF0EF120BF8AB82E58124FCF581D004D005D006D0078B
:20054E00EB60087C007D007EA07F41C007C006C005C004C004C005C006C00790000075F042
:20056E007A7444120BF8AB82E58124FCF581D004D005D006D007EB60087C007D007E7A7FE4
:20058E0044E4C0E0C0E074A0C0E023C0E08C828D838EF0EF120EA9AC82AD83AEF0FFE581B9
:2005AE0024FCF581E4C0E0C0E074C8C0E07442C0E08C828D838EF0EF120D9D85822A8583C1
:2005CE002B85F02CF52DE58124FCF581E4C0E0C0E074A0C0E023C0E0852A82852B83852C73
:2005EE00F0E52D120C28A882A983AAF0FBE58124FCF581E4F52EF52FC3E52E9464E52F644D
:20060E00809480400122852E82852F83C003C002C001C000120CF3AC82AD83AEF0FFC02A6D
:20062E00C02BC02CC02D8C828D838EF0EF1209B3AC82AD83AEF0FFE58124FCF581D000D0F8
:20064E0001D002D003C003C002C001C000C004C005C006C007888289838AF0EB120C288584
:20066E00823085833185F032F533E58124FCF581D000D001D002D003E52E252EFEE52F33C5
:20068E00FFEE2401FEEF3400FF8530828531838532F0E533C007C006C003C002C001C00058
:2006AE0012045EAC82AD83D000D001D002D003D006D0078E828F83ECF0EDA3F0052EE4B51D
:2006CE002E02052F020606AF82A293B39200A294B39201A2B3B39203300106C2029000014A
:2006EE00223003072004049000012230000720020490000122EF701AC28185348285358371
:20070E00C007120BC7D281853482853583120BC7D007BF011AC284853482853583C0071229
:20072E000BC7D284853482853583120BC7D007BF0216C286853482853583120BC7C2868508
:20074E003482853583120BC790000022AF827D007E008D038E04C3EB9536EC9537503630CD
:20076E000804900001229000C7E0F534A3E0F5358F82C007C006C0051206D5E5828583F0F0
:20078E00D005D006D00745F06004900001220DBD00C00E80BD90000022AF82750B64750C60
:2007AE0000853882853983C007120C81AD82AE83D007200503020851E4F53AF53BC3E53A66
:2007CE009464E53B648094804003020851E53A253AF9E53B33FAE92401F9EA3400FA780002
:2007EE007C00C3E89DEC64808EF063F08095F050473008049000012289828A83E0F534A337
:20080E00E0F5358F82C007C006C005C004C002C001C0001206D5E5828583F0D000D001D099
:20082E0002D004D005D006D00745F060049000012208B800AD0C80AA053AE4B53A02053B0F
:20084E000207CB3005030208DC753C63753D00E53D30E7030208DCE53C253CF9E53D33FAE6
:20086E00E92401F9EA3400FA78007C00C3E89DEC64808EF063F08095F05047300804900006
:20088E00012289828A83E0F534A3E0F5358F82C007C006C005C004C002C001C0001206D502
:2008AE00E5828583F0D000D001D002D004D005D006D00745F060049000012208B800AD0C3D
:2008CE0080AA153C74FFB53C02153D02085D90000022AF82853E82853F83C007120CF31217
:2008EE000404AD82AE83D007C3ED9490EE940140127BC87C008B448C45ED2470F8EE34FE0A
:20090E00FA8013EEC313CD13CDFE8D038E048D448E4578007A00E84A7002F8FAA2069280C5
:20092E00C282A20692838540828541838542F0E543C007C004C003C002C000120519D00069
:20094E00D002D003D004D0072008208B388C39D2058F82C007C002C0001207A7E582858309
:20096E00F0D000D002D00745F060012220081688368A378F82C00712075AE5828583F0D011
:20098E000745F0600122200816854438854539C2058F821207A7E5828583F045F060012299
:0509AE001008012222E7
:2009B300120A56BC0003020D55EF60FA30D502B2D1E583B4FF03020D6BE582B4FF03020DF8
:2009D3006B258340072482400B020D552483145003020D6BF582EA8DF0A4A8F0EA8EF0A4A7
:2009F30028F8E435F0F9EB8DF0A428E935F0F9E433CA8FF0A429F9EA35F0FAEBF88EF0A453
:200A130029F9EA35F0FAE433FBEC8DF0A429F9EA35F0FAE43BFBE88FF0A42AFAEB35F0FBFA
:200A3300E433CCFD8EF0A42AFAEB35F0FBE43CFCED8FF0A42BFBEC35F0FC20E703120A8469
:030A5300020D345D
:200A5600AA82AB83A2F73392D1F5826002D2F7ACF0E58124F9F8E6FD08E6FE0886F008E603
:0E0A7600A2F73392D5F5836002D2F7AFF022DB
:06005800E478FFF6D8FD7C
:200A84007804EC7011E58224F8500AF582E4C9CACBFCD8EF22EC7820058220E713D5820171
:130AA40022C3E933F9EA33FAEB33FBEC33FCD8EA1582227F
:200036007905E94400601B7A01900F7178D375A000E493F2A308B8000205A0D9F4DAF27518
:02005600A0FF09
:05009500750800C20720
:200AB700759850438E01438E0475D7D075D6FF438E10D2AFD2AC2285829910990280FB22CB
:200AD700AD82AE83AFF08D828E838FF0120E60FC60188C820DBD00010EC007C006C0051222
:200AF7000ACED005D006D00780DC22AF8275825AC007120ACE7582A5120ACE758204120A37
:200B1700CE758280120ACED0078F82120ACE850982120ACE850A82020ACEC0E0C082C083B3
:200B3700C007C0D075D000109802801CE508FF04F508EF24C9F582E43400F583E599F0740A
:130B5700F625085003750800D0D0D007D083D082D0E0329A
:02009A00C2089A
:0A0B6A00C288D2A8D2AF22D208320E
:200B7400438E805389F0758A40758CA2C28DD28C22AE82AF837C007D00C3EC9EED9F5021EE
:200B9400C007C006C005C004120B74D004D005D006D007308DFDC28CC28D0CBC00DB0D80BD
:200BB400D822438E4053890F758B40758DFFC28FD28E22AE82AF837C007D00C3EC9EED9FE3
:200BD4005021C007C006C005C004120BB6D004D005D006D007308FFDC28EC28F0CBC00DB51
:040BF4000D80D82276
:200BF800FFA8811818120CC8D2D133E6400730E70B7582002220E70675820122C2D1120C89
:100C1800AAE97003F5822220D101B3E433F58222D8
:200C2800120A567900E583B58202800D5003120D83E583C39582120EB4E5D0C465D020E1D9
:200C480017EA2DFAEB3EFBEC3FFC50097401120EB4EC4480FC020D34C3EA9DFAEB9EFBECD4
:190C68009FFC500FC3E499F9E49AFAE49BFBE49CFCB2D1120A84020D346C
:20005E007800E84400600A790175A000E4F309D8FC78D2E84400600C7901900001E4F0A3CD
:04007E00D8FCD9FAD7
:200C81007A10E4FBFCE58225E0F582E58333F583EB33FBEC33FCEB950BF5F0EC950C400681
:090CA100FCABF0438201DADD2214
:200CAA007901AA82E68F82B5821318E6B5F00E18E6B5830918E68A82B58202790022B48041
:200CCA000FE5F0700AE5837006E58270027F00EFB6801518B6001018B6000B18B6000608A9
:090CEA000808760022080808221F
:0D0CF300AC83AB827A007900748E020E850E
:200D0000120EF7700AE582458345F0700122E430D112F4700BE5F0F47006E58330E7012204
:140D200090800022700AE5F07006E58320E70122907FFF2206
:200D3400B98003EA13B34010EA2401FAE43BFBE43CFC50047C800582BC000EBB000BBA0003
:200D540008E4F5F0F583F58222A2D1E582138CF092F78B838A8222E4F583F58275F080F4C3
:0F0D7400A2D11322E4F583F58275F0C0747F22BB
:1A0D8300E582C583F582A2D133A2D592D11392D5ECCFFCEBCEFBEACDFA22F8
:200D9D00120A5630D502B2D1BF0009BC0003020D78020D6BBC0003020D55E583B4FF0BE584
:200DBD0082B4FF03020D78020D55E582B4FF03020D6BC395835007247F400B020D55248034
:200DDD00145003020D6BF582C3ED9AEE9BEF9C40111582C3EA33F9EB33FAEC33FBE433FC3A
:200DFD008005E4CCCBCAF9C08275F019C3E99DEA9EEB9FEC9400D5F002802D400EE99DF937
:200E1D00EA9EFAEB9FFBEC9400FCC3B3E833F8E58233F582E58333F583C3E933F9EA33FA96
:200E3D00EB33FBEC33FC80C4B3E4F938FAE43582FBE43583FCD082500405827C80120A8464
:030E5D00020D4C37
:0D002900758145120F64E582600302002618
:1C0E600020F71430F6148883A88220F507E6A88375830022E280F7E49322E022A1
:200E7C00FCABF0AA83A982749EF582C2D1EC30E716D2D1E9F42401F9EAF43400FAEBF43475
:0D0E9C0000FBECF43400FC120A84020D345B
:0B0EA900A8811818C6B2E7C6020C288A
:200EB4006040F82582500274FFF582E824F8501ECCCBCAF9E4CC24F85014CBCAF9E4CB2446
:200ED400F8500BCAF9E4CA24F8500379002224086010F8C3EC13FCEB13FBEA13FAE913F9F9
:030EF400D8F12210
:200EF700120F52C3749E958240397900120EB430D126E9F42401F582EAF43400F583EBF4AD
:200F17003400F5F0ECF43400700AE582458345F0700122E430E70F22EC20E71489828A83D1
:1B0F37008BF02230D10AE4F582F583F5F074802274FFF582F583F5F0747F22CD
:120F5200AA82AB83A2F73392D1F5826002D2F7ACF022A4
:040F64007582002270
:00000001FF
