:06000000020029020C5869
:01000B0032C2
:0100130032BA
:01001B0032B2
:03002300020C18B4
:0300930002002642
:0300260002024192
:20009600AE82AF837C007D00C3EC9EED64808FF063F08095F05027C2C19001F4C007C006EE
:2000B600C005C004120C87D2C19001F4120C87D004D005D006D0070CBC00CD0D80CA22904B
:2000D6000004120096754258754302D206E4F544F54575464875474375820112080A300315
:2000F60014E4F50BF50CF50DF50E90002275F0401208DDD204754284754303C206E4F544ED
:20011600F54575464875474375820012080A300014E4F50BF50CF50DF50E90002275F040ED
:200136001208DDD20222754264754300C206E4F544F54575469675474375820112080A90CE
:20015600000A120C87754264754300D206E4F544F54575469675474375820112080A9000DC
:200176000A020C87754232754300C206E4F544F5457546AF75474375820112080A9003E80A
:20019600120C87754232754300D206E4F544F5457546AF75474375820102080A7542B4757F
:2001B6004300D206E4F544F5457546C875474375820012080A9003E8120C8775424075434B
:2001D60001D206E4F544F5457546C875474375820012080A90000A020C877542FA754300A4
:2001F600C206E4F544F5457546AF75474375820112080A9003E8120C877542FA754300D2EA
:2002160006E4F544F5457546AF75474375820102080A7542F4754301C206E4F544F54575FE
:2002360046E175474375820002080A43947F859393120B9E120C5190106A75F080120BBE82
:20025600900064120C87E4F50BF50CF50DF50E90002275F0401208DD1200D5D202D20430F6
:2002760002F93004F6900002120096E4F50BF50C750D32F50E90002875F040120906754A30
:2002960028754B00754C4090002275F04012092F9003E8120C87E4F50BF50CF50DF50E9024
:2002B600002875F040120906754A28754B00754C4090002275F04012092F9003E8120C87D1
:2002D600750BB4E4F50CF50DF50E90002875F040120906754A28754B00754C40900022759D
:2002F600F04012092F9003E8120C87E4F50BF50CF50DF50E90002875F040120906754A28FF
:18031600754B00754C4090002275F04012092F9003E8120C87020271D8
:0E106A007374617274210D0A00000000000012
:0A008200C200C201C202C203C204A0
:20032E00AC82AD83AEF0FF74ECC0E07451C0E07438C0E0743DC0E08C828D838EF0EF120E07
:20034E009FAC82AD83AEF0FFE58124FCF581E4C0E0C0E0C0E0743FC0E08C828D838EF0EF57
:20036E00120D2AAC82AD83AEF0FFE58124FCF5818C828D838EF0EF020DF5AC82AD83AEF0A4
:20038E00FFE4C0E0C0E074B4C0E07442C0E08C828D838EF0EF120E9FAC82AD83AEF0FFE5E4
:2003AE008124FCF581E4C0E0C0E074FAC0E07444C0E08C828D838EF0EF120A9AAC82AD83EF
:2003CE00AEF0FFE58124FCF581C004C005C006C00790000075F080743F120E9FAC82AD831B
:2003EE00AEF0FFE58124FCF581C004C005C006C00790500075F0C37447120A9AAC82AD8369
:20040E00AEF0FFE58124FCF581E4C0E0C0E0C0E07440C0E08C828D838EF0EF120E9FAC82A5
:20042E00AD83AEF0FFE58124FCF5818C828D838EF0EF020DF5AC82AD83AEF0FFC007C006CE
:20044E00C005C004E4C0E0C0E074A0C0E023C0E08C828D838EF0EF120CFAAB82E58124FC14
:20046E00F581D004D005D006D007EB60087C007D007EA07F41C007C006C005C004C004C0DE
:20048E0005C006C00790000075F07A7444120CFAAB82E58124FCF581D004D005D006D007FE
:2004AE00EB60087C007D007E7A7F44E4C0E0C0E074A0C0E023C0E08C828D838EF0EF120FE0
:2004CE00ABAC82AD83AEF0FFE58124FCF581E4C0E0C0E074C8C0E07442C0E08C828D838E6A
:2004EE00F0EF120E9F85822E85832F85F030F531E58124FCF581E4C0E0C0E074A0C0E02322
:20050E00C0E0852E82852F838530F0E531120D2AA882A983AAF0FBE58124FCF581E4F532CB
:20052E00F533C3E5329464E53364809480400122853282853383C003C002C001C000120EA6
:20054E0029AC82AD83AEF0FFC02EC02FC030C0318C828D838EF0EF120A9AAC82AD83AEF06E
:20056E00FFE58124FCF581D000D001D002D003C003C002C001C000C004C005C006C0078888
:20058E008289838AF0EB120D2A85823485833585F036F537E58124FCF581D000D001D00253
:2005AE00D003E5322532FEE53333FFEE2401FEEF3400FF8534828535838536F0E537C0076B
:2005CE00C006C003C002C001C000120388AC82AD83D000D001D002D003D006D0078E828FB4
:2005EE0083ECF0EDA3F00532E4B532020533020530AF82A293B39200A294B39201A2B3B36C
:20060E009203300106C202900001223003072004049000012230000720020490000122EF75
:20062E00701AC281853882853983C007120CC9D281853882853983120CC9D007BF011AC284
:20064E0084853882853983C007120CC9D284853882853983120CC9D007BF0216C28685386A
:20066E0082853983120CC9C286853882853983120CC990000022AF827D007E008D038E0413
:20068E00C3EB953AEC953B5036300804900001229000C7E0F538A3E0F5398F82C007C006EB
:2006AE00C0051205FFE5828583F0D005D006D00745F06004900001220DBD00C00E80BD90BF
:2006CE00000022AF82750B64750C00853C82853D83C007120D83AD82AE83D0072005030202
:2006EE00077BE4F53EF53FC3E53E9464E53F64809480400302077BE53E253EF9E53F33FA8E
:20070E00E92401F9EA3400FA78007C00C3E89DEC64808EF063F08095F05047300804900067
:20072E00012289828A83E0F538A3E0F5398F82C007C006C005C004C002C001C0001205FF32
:20074E00E5828583F0D000D001D002D004D005D006D00745F060049000012208B800AD0C9E
:20076E0080AA053EE4B53E02053F0206F5300503020806754063754100E54130E703020884
:20078E0006E5402540F9E54133FAE92401F9EA3400FA78007C00C3E89DEC64808EF063F073
:2007AE008095F050473008049000012289828A83E0F538A3E0F5398F82C007C006C005C0A7
:2007CE0004C002C001C0001205FFE5828583F0D000D001D002D004D005D006D00745F060F1
:2007EE00049000012208B800AD0C80AA154074FFB54002154102078790000022AF82854242
:20080E0082854383C007120E2912032EAD82AE83D007C3ED9490EE940140127BC87C008B80
:20082E00488C49ED2470F8EE34FEFA8013EEC313CD13CDFE8D038E048D488E4978007A0038
:20084E00E84A7002F8FAA2069280C282A20692838544828545838546F0E547C007C004C06F
:20086E0003C002C000120443D000D002D003D004D0072008208B3C8C3DD2058F82C007C025
:20088E0002C0001206D1E5828583F0D000D002D00745F0600122200816883A8A3B8F82C079
:2008AE0007120684E5828583F0D00745F060012220081685483C85493DC2058F821206D186
:2008CE00E5828583F045F06001221008012222AD82AE83AFF0E50B120C5BA3E50C120C5B21
:2008EE0074022DFDE43EFE8D828E838FF0E50D120C5BA3E50E020C5BAD82AE83AFF0E50B32
:20090E00120C5BA3E50C120C5B74022DFDE43EFE8D828E838FF0E50D120C5BA3E50E020CD5
:20092E005B85824D85834E85F04FAA4AAB4BAC4C8A828B838CF0120F62F8A3120F62F98549
:20094E004D82854E83854FF0120F62FEA3120F62FFE8C39EF550E99FF55174022AFDE43BE2
:20096E00FE8C078D828E838FF0120F62F557A3120F62F5587402254DF554E4354EF5558590
:20098E004F568554828555838556F0120F62FAA3120F62FCE557C39AF552E5589CF553E59C
:2009AE005045516073854D82854E83854FF0E8120C5BA3E9120C5BC3E4955074808551F056
:2009CE0063F08095F05027855042855143D206E4F544F5457546AF754743758200C007C0F4
:2009EE0006C00512080AD005D006D007802AC3E49550F542E49551F543C206E4F544F545EA
:200A0E007546AF754743758200C007C006C00512080AD005D006D007E5524553606A8D82C8
:200A2E008E838FF0120F62FDA3120F62FE8554828555838556F0ED120C5BA3EE120C5BC3BE
:200A4E00E4955274808553F063F08095F0501B855242855343C206E4F544F5457546AF750C
:200A6E00474375820112080A801EC3E49550F542E49551F543D206E4F544F5457546AF7551
:0C0A8E00474375820112080A9000002204
:200A9A00120B3DBC0003020E57EF60FA30D502B2D1E583B4FF03020E6DE582B4FF03020E21
:200ABA006D258340072482400B020E572483145003020E6DF582EA8DF0A4A8F0EA8EF0A4B7
:200ADA0028F8E435F0F9EB8DF0A428E935F0F9E433CA8FF0A429F9EA35F0FAEBF88EF0A46B
:200AFA0029F9EA35F0FAE433FBEC8DF0A429F9EA35F0FAE43BFBE88FF0A42AFAEB35F0FB13
:200B1A00E433CCFD8EF0A42AFAEB35F0FBE43CFCED8FF0A42BFBEC35F0FC20E703120B6B99
:030B3A00020E3672
:200B3D00AA82AB83A2F73392D1F5826002D2F7ACF0E58124F9F8E6FD08E6FE0886F008E61B
:0E0B5D00A2F73392D5F5836002D2F7AFF022F3
:06005800E478FFF6D8FD7C
:200B6B007804EC7011E58224F8500AF582E4C9CACBFCD8EF22EC7820058220E713D5820189
:130B8B0022C3E933F9EA33FAEB33FBEC33FCD8EA15822297
:200036007905E94400601B7A0190107378D375A000E493F2A308B8000205A0D9F4DAF27515
:02005600A0FF09
:05008C00750800C20729
:200B9E00759850438E01438E0475D7D075D6FF438E10D2AFD2AC2285829910990280FB22E3
:200BBE00AD82AE83AFF08D828E838FF0120F62FC60188C820DBD00010EC007C006C0051237
:200BDE000BB5D005D006D00780DC22AF8275825AC007120BB57582A5120BB5758204120B96
:200BFE00B5758280120BB5D0078F82120BB5850982120BB5850A82020BB5C0E0C082C08345
:200C1E00C007C0D075D000109802801CE508FF04F508EF24C9F582E43400F583E599F07422
:130C3E00F625085003750800D0D0D007D083D082D0E032B2
:02009100C208A3
:0A0C5100C288D2A8D2AF22D2083226
:1B0C5B0020F71130F6138883A88220F509F6A8837583002280FEF280F5F02298
:200C7600438E805389F0758A40758CA2C28DD28C22AE82AF837C007D00C3EC9EED9F5021EB
:200C9600C007C006C005C004120C76D004D005D006D007308DFDC28CC28D0CBC00DB0D80B7
:200CB600D822438E4053890F758B40758DFFC28FD28E22AE82AF837C007D00C3EC9EED9FE0
:200CD6005021C007C006C005C004120CB8D004D005D006D007308FFDC28EC28F0CBC00DB4B
:040CF6000D80D82273
:200CFA00FFA8811818120DCAD2D133E6400730E70B7582002220E70675820122C2D1120D82
:100D1A00ACE97003F5822220D101B3E433F58222D3
:200D2A00120B3D7900E583B58202800D5003120E85E583C39582120FB6E5D0C465D020E1E8
:200D4A0017EA2DFAEB3EFBEC3FFC50097401120FB6EC4480FC020E36C3EA9DFAEB9EFBECCB
:190D6A009FFC500FC3E499F9E49AFAE49BFBE49CFCB2D1120B6B020E367E
:20005E007800E84400600A790175A000E4F309D8FC78D2E84400600C7901900001E4F0A3CD
:04007E00D8FCD9FAD7
:200D83007A10E4FBFCE58225E0F582E58333F583EB33FBEC33FCEB950BF5F0EC950C40067E
:090DA300FCABF0438201DADD2211
:200DAC007901AA82E68F82B5821318E6B5F00E18E6B5830918E68A82B58202790022B4803E
:200DCC000FE5F0700AE5837006E58270027F00EFB6801518B6001018B6000B18B6000608A6
:090DEC000808760022080808221C
:200DF500120FF9700AE582458345F0700122E430D112F4700BE5F0F47006E58330E701220C
:140E150090800022700AE5F07006E58320E70122907FFF2210
:0D0E2900AC83AB827A007900748E020F87D3
:200E3600B98003EA13B34010EA2401FAE43BFBE43CFC50047C800582BC000EBB000BBA0000
:200E560008E4F5F0F583F58222A2D1E582138CF092F78B838A8222E4F583F58275F080F4C0
:0F0E7600A2D11322E4F583F58275F0C0747F22B8
:1A0E8500E582C583F582A2D133A2D592D11392D5ECCFFCEBCEFBEACDFA22F5
:200E9F00120B3D30D502B2D1BF0009BC0003020E7A020E6DBC0003020E57E583B4FF0BE590
:200EBF0082B4FF03020E7A020E57E582B4FF03020E6DC395835007247F400B020E57248025
:200EDF00145003020E6DF582C3ED9AEE9BEF9C40111582C3EA33F9EB33FAEC33FBE433FC34
:200EFF008005E4CCCBCAF9C08275F019C3E99DEA9EEB9FEC9400D5F002802D400EE99DF934
:200F1F00EA9EFAEB9FFBEC9400FCC3B3E833F8E58233F582E58333F583C3E933F9EA33FA93
:200F3F00EB33FBEC33FC80C4B3E4F938FAE43582FBE43583FCD082500405827C80120B6B79
:030F5F00020E4E31
:0D002900758158121066E582600302002602
:1C0F620020F71430F6148883A88220F507E6A88375830022E280F7E49322E0229E
:200F7E00FCABF0AA83A982749EF582C2D1EC30E716D2D1E9F42401F9EAF43400FAEBF43472
:0D0F9E0000FBECF43400FC120B6B020E366D
:0B0FAB00A8811818C6B2E7C6020D2A84
:200FB6006040F82582500274FFF582E824F8501ECCCBCAF9E4CC24F85014CBCAF9E4CB2443
:200FD600F8500BCAF9E4CA24F8500379002224086010F8C3EC13FCEB13FBEA13FAE913F9F6
:030FF600D8F1220D
:200FF900121054C3749E958240397900120FB630D126E9F42401F582EAF43400F583EBF4A4
:201019003400F5F0ECF43400700AE582458345F0700122E430E70F22EC20E71489828A83CE
:1B1039008BF02230D10AE4F582F583F5F074802274FFF582F583F5F0747F22CA
:12105400AA82AB83A2F73392D1F5826002D2F7ACF022A1
:04106600758200226D
:00000001FF
