:06000000020029020B932F
:01000B0032C2
:0100130032BA
:01001B0032B2
:03002300020B537A
:0300930002002642
:0300260002024192
:20009600AE82AF837C007D00C3EC9EED64808FF063F08095F05027C2C19001F4C007C006EE
:2000B600C005C004120BC2D2C19001F4120BC2D004D005D006D0070CBC00CD0D80CA2290D7
:2000D6000004120096753C58753D02D206E4F53EF53F7540487541437582011206DC300369
:2000F60014E4F50BF50CF50DF50E90002275F0401207AFD204753C84753D03C206E4F53E2E
:20011600F53F7540487541437582001206DC300014E4F50BF50CF50DF50E90002275F0402F
:200136001207AFD20222753CC8753D00C206E4F53EF53F7540967541437582001206DC90EE
:20015600000A120BC2753CC8753D00D206E4F53EF53F7540AF7541437582001206DC90007A
:200176000A020BC2753C32753D00C206E4F53EF53F7540F07541427582011206DC9003E8E4
:20019600120BC2753C32753D00D206E4F53EF53F7540167541437582010206DC753CB47538
:2001B6003D00D206E4F53EF53F7540347541437582001206DC9003E8120BC2753C40753DFF
:2001D60001D206E4F53EF53F7540347541437582001206DC90000A020BC2753CFA753D0052
:2001F600C206E4F53EF53F7540F07541427582011206DC9003E8120BC2753CFA753D00D2C4
:2002160006E4F53EF53F7540167541437582010206DC753CF4753D01C206E4F53EF53F75F7
:2002360040487541437582000206DC43947F859393120AD9120B8C900FA575F080120AF96F
:20025600900064120BC2E4F50BF50CF50DF50E90002275F0401207AF900002120096D2029E
:0D027600D2043002F93004F612013C80F190
:0E0FA5007374617274210D0A000000000000D8
:0A008200C200C201C202C203C204A0
:20028300AC82AD83AEF0FFE4C0E0C0E074B4C0E07442C0E08C828D838EF0EF120DDAAC826C
:2002A300AD83AEF0FFE58124FCF581E4C0E0C0E074FAC0E07444C0E08C828D838EF0EF124B
:2002C30009D5AC82AD83AEF0FFE58124FCF581C004C005C006C00790000075F080743F12F6
:2002E3000DDAAC82AD83AEF0FFE58124FCF581C004C005C006C00790500075F0C374471232
:2003030009D5AC82AD83AEF0FFE58124FCF5818C828D838EF0EF020D30AC82AD83AEF0FF40
:20032300C007C006C005C004E4C0E0C0E074A0C0E023C0E08C828D838EF0EF120C35AB82FE
:20034300E58124FCF581D004D005D006D007EB60087C007D007EA07F41C007C006C005C00C
:2003630004C004C005C006C00790000075F07A7444120C35AB82E58124FCF581D004D00514
:20038300D006D007EB60087C007D007E7A7F44E4C0E0C0E074A0C0E023C0E08C828D838E5F
:2003A300F0EF120EE6AC82AD83AEF0FFE58124FCF581E4C0E0C0E074C8C0E07442C0E08C7C
:2003C300828D838EF0EF120DDA85822E85832F85F030F531E58124FCF5817A007B00C3EA4D
:2003E3009464EB648094804001228A828B83C003C002120D64A882A983AEF0FFC02EC02FCA
:20040300C030C031888289838EF0EF1209D5AC82AD83AEF0FFE58124FCF581E4C0E0C0E06A
:2004230074A0C0E023C0E08C828D838EF0EF120C65AC82AD83AEF0FFE58124FCF581D0026B
:20044300D003EA2AF8EB33F9E82401F8E93400F98C828D838EF0EFC003C002C001C00012E5
:200463000283AE82AF83D000D001D002D00388828983EEF0EFA3F00ABA00010B0203E1AF71
:2004830082A293B39200A294B39201A2B3B39203300106C2029000012230030720040490A4
:2004A30000012230000720020490000122EF700FB281853282853383C007120C04D007BF72
:2004C300011AC284853282853383C007120C04D284853282853383120C04D007BF0216C2FF
:2004E30086853282853383120C04D286853282853383120C0490000022AF827D007E008D84
:20050300038E04C3EB9534EC95355036300804900001229000C7E0F532A3E0F5338F82C0C7
:2005230007C006C005120482E5828583F0D005D006D00745F06004900001220DBD00C00EC9
:2005430080BD90000022AC82AD83AEF0FF74ECC0E07451C0E07438C0E0743DC0E08C828D11
:20056300838EF0EF120DDAAC82AD83AEF0FFE58124FCF581E4C0E0C0E0C0E0743FC0E08CF5
:20058300828D838EF0EF120C65AC82AD83AEF0FFE58124FCF5818C828D838EF0EF020D3015
:2005A300AF82750B64750C00853682853783C007120CBEAD82AE83D00720050302064DE4EB
:2005C300F538F539C3E5389464E53964809480400302064DE5382538F9E53933FAE924016B
:2005E300F9EA3400FA78007C00C3E89DEC64808EF063F08095F050473008049000012289F6
:20060300828A83E0F532A3E0F5338F82C007C006C005C004C002C001C000120482E58285A8
:2006230083F0D000D001D002D004D005D006D00745F060049000012208B800AD0C80AA0587
:2006430038E4B5380205390205C73005030206D8753A63753B00E53B30E7030206D8E53A6D
:20066300253AF9E53B33FAE92401F9EA3400FA78007C00C3E89DEC64808EF063F08095F0D1
:2006830050473008049000012289828A83E0F532A3E0F5338F82C007C006C005C004C0021E
:2006A300C001C000120482E5828583F0D000D001D002D004D005D006D00745F060049000CD
:2006C300012208B800AD0C80AA153A74FFB53A02153B02065990000022AF82853C82853D05
:2006E30083C007120D64120549AD82AE83D007C3ED94E8EE940340127BF47C018B428C4308
:20070300ED2418F8EE34FCFA8013EEC313CD13CDFE8D038E048D428E4378007A00E84A7045
:2007230002F8FAA2069280C282A2069283853E82853F838540F0E541C007C004C003C00290
:20074300C00012031CD000D002D003D004D0072008208B368C37D2058F82C007C002C00088
:200763001205A3E5828583F0D000D002D00745F060012220081688348A358F82C007120485
:20078300FCE5828583F0D00745F0600122200816854236854337C2058F821205A3E58285B4
:2007A30083F045F06001221008012222AD82AE83AFF0E50B120B96A3E50C120B9674022D22
:2007C300FDE43EFE8D828E838FF0E50D120B96A3E50E020B96AD82AE83AFF0E50B120B96DA
:2007E300A3E50C120B9674022DFDE43EFE8D828E838FF0E50D120B96A3E50E020B9685826B
:200803004785834885F049AA44AB45AC468A828B838CF0120E9DF8A3120E9DF98547828539
:2008230048838549F0120E9DFEA3120E9DFFE8C39EF54AE99FF54B74022AFDE43BFE8C0775
:200843008D828E838FF0120E9DF551A3120E9DF55274022547F54EE43548F54F85495085DF
:200863004E82854F838550F0120E9DF8A3120E9DF9E551C398F54CE55299F54DC3E4954A11
:200883007480854BF063F08095F05033854A3C854B3DD206E4F53EF53F7540C875414275A1
:2008A3008200C007C006C005C004C003C0021206DCD002D003D004D005D006D0078036C3B0
:2008C300E4954AF53CE4954BF53DC206E4F53EF53F7540C8754142758200C007C006C0055A
:2008E300C004C003C0021206DCD002D003D004D005D006D007900064C007C006C005C004B3
:20090300C003C002120BC2D002D003D004D005D006D007C3E4954C7480854DF063F08095CF
:20092300F05033854C3C854D3DC206E4F53EF53F7540C8754142758201C007C006C005C093
:2009430004C003C0021206DCD002D003D004D005D006D0078036C3E4954AF53CE4954BF5F6
:200963003DD206E4F53EF53F7540C8754142758201C007C006C005C004C003C0021206DC18
:20098300D002D003D004D005D006D0078A828B838CF0120E9DFAA3120E9DFB854782854896
:2009A300838549F0EA120B96A3EB120B968D828E838FF0120E9DFDA3120E9DFE854E828584
:1209C3004F838550F0ED120B96A3EE120B9690000022F5
:2009D500120A78BC0003020D92EF60FA30D502B2D1E583B4FF03020DA8E582B4FF03020D3A
:2009F500A8258340072482400B020D922483145003020DA8F582EA8DF0A4A8F0EA8EF0A4CE
:200A150028F8E435F0F9EB8DF0A428E935F0F9E433CA8FF0A429F9EA35F0FAEBF88EF0A430
:200A350029F9EA35F0FAE433FBEC8DF0A429F9EA35F0FAE43BFBE88FF0A42AFAEB35F0FBD8
:200A5500E433CCFD8EF0A42AFAEB35F0FBE43CFCED8FF0A42BFBEC35F0FC20E703120AA625
:030A7500020D71FE
:200A7800AA82AB83A2F73392D1F5826002D2F7ACF0E58124F9F8E6FD08E6FE0886F008E6E1
:0E0A9800A2F73392D5F5836002D2F7AFF022B9
:06005800E478FFF6D8FD7C
:200AA6007804EC7011E58224F8500AF582E4C9CACBFCD8EF22EC7820058220E713D582014F
:130AC60022C3E933F9EA33FAEB33FBEC33FCD8EA1582225D
:200036007905E94400601B7A01900FAE78D375A000E493F2A308B8000205A0D9F4DAF275DB
:02005600A0FF09
:05008C00750800C20729
:200AD900759850438E01438E0475D7D075D6FF438E10D2AFD2AC2285829910990280FB22A9
:200AF900AD82AE83AFF08D828E838FF0120E9DFC60188C820DBD00010EC007C006C00512C3
:200B19000AF0D005D006D00780DC22AF8275825AC007120AF07582A5120AF0758204120AAE
:200B3900F0758280120AF0D0078F82120AF0850982120AF0850A82020AF0C0E0C082C083E7
:200B5900C007C0D075D000109802801CE508FF04F508EF24C9F582E43400F583E599F074E8
:130B7900F625085003750800D0D0D007D083D082D0E03278
:02009100C208A3
:0A0B8C00C288D2A8D2AF22D20832EC
:1B0B960020F71130F6138883A88220F509F6A8837583002280FEF280F5F0225E
:200BB100438E805389F0758ACD758CD4C28DD28C22AE82AF837C007D00C3EC9EED9F5021F2
:200BD100C007C006C005C004120BB1D004D005D006D007308DFDC28CC28D0CBC00DB0D8043
:200BF100D822438E4053890F758B10758DFFC28FD28E22AE82AF837C007D00C3EC9EED9FD6
:200C11005021C007C006C005C004120BF3D004D005D006D007308FFDC28EC28F0CBC00DBD6
:040C31000D80D82238
:200C3500FFA8811818120D05D2D133E6400730E70B7582002220E70675820122C2D1120C0D
:100C5500E7E97003F5822220D101B3E433F582225E
:200C6500120A787900E583B58202800D5003120DC0E583C39582120EF1E5D0C465D020E100
:200C850017EA2DFAEB3EFBEC3FFC50097401120EF1EC4480FC020D71C3EA9DFAEB9EFBEC1D
:190CA5009FFC500FC3E499F9E49AFAE49BFBE49CFCB2D1120AA6020D71D0
:20005E007800E84400600A790175A000E4F309D8FC78D2E84400600C7901900001E4F0A3CD
:04007E00D8FCD9FAD7
:200CBE007A10E4FBFCE58225E0F582E58333F583EB33FBEC33FCEB950BF5F0EC950C400644
:090CDE00FCABF0438201DADD22D7
:200CE7007901AA82E68F82B5821318E6B5F00E18E6B5830918E68A82B58202790022B48004
:200D07000FE5F0700AE5837006E58270027F00EFB6801518B6001018B6000B18B60006086B
:090D2700080876002208080822E1
:200D3000120F34700AE582458345F0700122E430D112F4700BE5F0F47006E58330E7012296
:140D500090800022700AE5F07006E58320E70122907FFF22D6
:0D0D6400AC83AB827A007900748E020EC25F
:200D7100B98003EA13B34010EA2401FAE43BFBE43CFC50047C800582BC000EBB000BBA00C6
:200D910008E4F5F0F583F58222A2D1E582138CF092F78B838A8222E4F583F58275F080F486
:0F0DB100A2D11322E4F583F58275F0C0747F227E
:1A0DC000E582C583F582A2D133A2D592D11392D5ECCFFCEBCEFBEACDFA22BB
:200DDA00120A7830D502B2D1BF0009BC0003020DB5020DA8BC0003020D92E583B4FF0BE56E
:200DFA0082B4FF03020DB5020D92E582B4FF03020DA8C395835007247F400B020D92248003
:200E1A00145003020DA8F582C3ED9AEE9BEF9C40111582C3EA33F9EB33FAEC33FBE433FCBF
:200E3A008005E4CCCBCAF9C08275F019C3E99DEA9EEB9FEC9400D5F002802D400EE99DF9F9
:200E5A00EA9EFAEB9FFBEC9400FCC3B3E833F8E58233F582E58333F583C3E933F9EA33FA59
:200E7A00EB33FBEC33FC80C4B3E4F938FAE43582FBE43583FCD082500405827C80120AA605
:030E9A00020D89BD
:0D002900758152120FA1E5826003020026CE
:1C0E9D0020F71430F6148883A88220F507E6A88375830022E280F7E49322E02264
:200EB900FCABF0AA83A982749EF582C2D1EC30E716D2D1E9F42401F9EAF43400FAEBF43438
:0D0ED90000FBECF43400FC120AA6020D71BF
:0B0EE600A8811818C6B2E7C6020C6510
:200EF1006040F82582500274FFF582E824F8501ECCCBCAF9E4CC24F85014CBCAF9E4CB2409
:200F1100F8500BCAF9E4CA24F8500379002224086010F8C3EC13FCEB13FBEA13FAE913F9BB
:030F3100D8F122D2
:200F3400120F8FC3749E958240397900120EF130D126E9F42401F582EAF43400F583EBF4F5
:200F54003400F5F0ECF43400700AE582458345F0700122E430E70F22EC20E71489828A8394
:1B0F74008BF02230D10AE4F582F583F5F074802274FFF582F583F5F0747F2290
:120F8F00AA82AB83A2F73392D1F5826002D2F7ACF02267
:040FA1007582002233
:00000001FF
