:06000000020029020C8B36
:01000B0032C2
:0100130032BA
:01001B0032B2
:03002300020C4B81
:0300930002002642
:0300260002024192
:20009600AE82AF837C007D00C3EC9EED64808FF063F08095F05027C2C19001F4C007C006EE
:2000B600C005C004120CBAD2C19001F4120CBAD004D005D006D0070CBC00CD0D80CA2290E5
:2000D6000004120096754258754302D206E4F544F54575464875474375820112080A300315
:2000F60014E4F50BF50CF50DF50E90002275F0401208DDD204754284754303C206E4F544ED
:20011600F54575464875474375820012080A300014E4F50BF50CF50DF50E90002275F040ED
:200136001208DDD20222754264754300C206E4F544F54575469675474375820112080A90CE
:20015600000A120CBA754264754300D206E4F544F54575469675474375820112080A9000A9
:200176000A020CBA754232754300C206E4F544F5457546AF75474375820112080A9003E8D7
:20019600120CBA754232754300D206E4F544F5457546AF75474375820102080A7542B4754C
:2001B6004300D206E4F544F5457546C875474375820012080A9003E8120CBA754240754318
:2001D60001D206E4F544F5457546C875474375820012080A90000A020CBA7542FA75430071
:2001F600C206E4F544F5457546AF75474375820112080A9003E8120CBA7542FA754300D2B7
:2002160006E4F544F5457546AF75474375820102080A7542F4754301C206E4F544F54575FE
:2002360046E175474375820002080A43947F859393120BD1120C8490109D75F080120BF1B6
:20025600900064120CBAE4F50BF50CF50DF50E90002275F0401208DD1200D5D202D20430C3
:2002760002F93004F6900002120096E4F50BF50C750D32F50E90002875F040120906754A30
:2002960028754B00754C4090002275F04012092F90000A120CBAE4F50BF50CF50DF50E90D2
:2002B600002875F040120906754A28754B00754C4090002275F04012092F90000A120CBA7F
:2002D600750BB4E4F50CF50DF50E90002875F040120906754A28754B00754C40900022759D
:2002F600F04012092F90000A120CBAE4F50BF50CF50DF50E90002875F040120906754A28AD
:18031600754B00754C4090002275F04012092F90000A120CBA02027186
:0E109D007374617274210D0A000000000000DF
:0A008200C200C201C202C203C204A0
:20032E00AC82AD83AEF0FF74ECC0E07451C0E07438C0E0743DC0E08C828D838EF0EF120E07
:20034E00D2AC82AD83AEF0FFE58124FCF581E4C0E0C0E0C0E0743FC0E08C828D838EF0EF24
:20036E00120D5DAC82AD83AEF0FFE58124FCF5818C828D838EF0EF020E28AC82AD83AEF03D
:20038E00FFE4C0E0C0E074B4C0E07442C0E08C828D838EF0EF120ED2AC82AD83AEF0FFE5B1
:2003AE008124FCF581E4C0E0C0E074FAC0E07444C0E08C828D838EF0EF120ACDAC82AD83BC
:2003CE00AEF0FFE58124FCF581C004C005C006C00790000075F080743F120ED2AC82AD83E8
:2003EE00AEF0FFE58124FCF581C004C005C006C00790500075F0C37447120ACDAC82AD8336
:20040E00AEF0FFE58124FCF581E4C0E0C0E0C0E07440C0E08C828D838EF0EF120ED2AC8272
:20042E00AD83AEF0FFE58124FCF5818C828D838EF0EF020E28AC82AD83AEF0FFC007C0069A
:20044E00C005C004E4C0E0C0E074A0C0E023C0E08C828D838EF0EF120D2DAB82E58124FCE0
:20046E00F581D004D005D006D007EB60087C007D007EA07F41C007C006C005C004C004C0DE
:20048E0005C006C00790000075F07A7444120D2DAB82E58124FCF581D004D005D006D007CA
:2004AE00EB60087C007D007E7A7F44E4C0E0C0E074A0C0E023C0E08C828D838EF0EF120FE0
:2004CE00DEAC82AD83AEF0FFE58124FCF581E4C0E0C0E074C8C0E07442C0E08C828D838E37
:2004EE00F0EF120ED285822E85832F85F030F531E58124FCF581E4C0E0C0E074A0C0E023EF
:20050E00C0E0852E82852F838530F0E531120D5DA882A983AAF0FBE58124FCF581E4F53298
:20052E00F533C3E5329464E53364809480400122853282853383C003C002C001C000120EA6
:20054E005CAC82AD83AEF0FFC02EC02FC030C0318C828D838EF0EF120ACDAC82AD83AEF008
:20056E00FFE58124FCF581D000D001D002D003C003C002C001C000C004C005C006C0078888
:20058E008289838AF0EB120D5D85823485833585F036F537E58124FCF581D000D001D00220
:2005AE00D003E5322532FEE53333FFEE2401FEEF3400FF8534828535838536F0E537C0076B
:2005CE00C006C003C002C001C000120388AC82AD83D000D001D002D003D006D0078E828FB4
:2005EE0083ECF0EDA3F00532E4B532020533020530AF82A293B39200A294B39201A2B3B36C
:20060E009203300106C202900001223003072004049000012230000720020490000122EF75
:20062E00701AC281853882853983C007120CFCD281853882853983120CFCD007BF011AC21E
:20064E0084853882853983C007120CFCD284853882853983120CFCD007BF0216C286853804
:20066E0082853983120CFCC286853882853983120CFC90000022AF827D007E008D038E04AD
:20068E00C3EB953AEC953B5036300804900001229000C7E0F538A3E0F5398F82C007C006EB
:2006AE00C0051205FFE5828583F0D005D006D00745F06004900001220DBD00C00E80BD90BF
:2006CE00000022AF82750B64750C00853C82853D83C007120DB6AD82AE83D00720050302CF
:2006EE00077BE4F53EF53FC3E53E9464E53F64809480400302077BE53E253EF9E53F33FA8E
:20070E00E92401F9EA3400FA78007C00C3E89DEC64808EF063F08095F05047300804900067
:20072E00012289828A83E0F538A3E0F5398F82C007C006C005C004C002C001C0001205FF32
:20074E00E5828583F0D000D001D002D004D005D006D00745F060049000012208B800AD0C9E
:20076E0080AA053EE4B53E02053F0206F5300503020806754063754100E54130E703020884
:20078E0006E5402540F9E54133FAE92401F9EA3400FA78007C00C3E89DEC64808EF063F073
:2007AE008095F050473008049000012289828A83E0F538A3E0F5398F82C007C006C005C0A7
:2007CE0004C002C001C0001205FFE5828583F0D000D001D002D004D005D006D00745F060F1
:2007EE00049000012208B800AD0C80AA154074FFB54002154102078790000022AF82854242
:20080E0082854383C007120E5C12032EAD82AE83D007C3ED9490EE940140127BC87C008B4D
:20082E00488C49ED2470F8EE34FEFA8013EEC313CD13CDFE8D038E048D488E4978007A0038
:20084E00E84A7002F8FAA2069280C282A20692838544828545838546F0E547C007C004C06F
:20086E0003C002C000120443D000D002D003D004D0072008208B3C8C3DD2058F82C007C025
:20088E0002C0001206D1E5828583F0D000D002D00745F0600122200816883A8A3B8F82C079
:2008AE0007120684E5828583F0D00745F060012220081685483C85493DC2058F821206D186
:2008CE00E5828583F045F06001221008012222AD82AE83AFF0E50B120C8EA3E50C120C8EBB
:2008EE0074022DFDE43EFE8D828E838FF0E50D120C8EA3E50E020C8EAD82AE83AFF0E50BCC
:20090E00120C8EA3E50C120C8E74022DFDE43EFE8D828E838FF0E50D120C8EA3E50E020C3C
:20092E008E85824D85834E85F04FAA4AAB4BAC4C8A828B838CF0120F95F8A3120F95F985B0
:20094E004D82854E83854FF0120F95FEA3120F95FFE8C39EF550E99FF55174022AFDE43B7C
:20096E00FE8C078D828E838FF0120F95F557A3120F95F5587402254DF554E4354EF555852A
:20098E004F568554828555838556F0120F95F8A3120F95F9E557C398F552E55899F553C362
:2009AE00E4955074808551F063F08095F05033855042855143D206E4F544F5457546C87574
:2009CE004742758200C007C006C005C004C003C00212080AD002D003D004D005D006D007CF
:2009EE008036C3E49550F542E49551F543C206E4F544F5457546C8754742758200C007C050
:200A0E0006C005C004C003C00212080AD002D003D004D005D006D0078A828B838CF0120FDE
:200A2E0095FAA3120F95FB854D82854E83854FF0EA120C8EA3EB120C8EC3E4955274808580
:200A4E0053F063F08095F05027855242855343C206E4F544F5457546C8754742758201C0EA
:200A6E0007C006C00512080AD005D006D007802AC3E49550F542E49551F543D206E4F544CC
:200A8E00F5457546C8754742758201C007C006C00512080AD005D006D0078D828E838FF0FE
:1F0AAE00120F95FDA3120F95FE8554828555838556F0ED120C8EA3EE120C8E9000002214
:200ACD00120B70BC0003020E8AEF60FA30D502B2D1E583B4FF03020EA0E582B4FF03020E55
:200AED00A0258340072482400B020E8A2483145003020EA0F582EA8DF0A4A8F0EA8EF0A4EB
:200B0D0028F8E435F0F9EB8DF0A428E935F0F9E433CA8FF0A429F9EA35F0FAEBF88EF0A437
:200B2D0029F9EA35F0FAE433FBEC8DF0A429F9EA35F0FAE43BFBE88FF0A42AFAEB35F0FBDF
:200B4D00E433CCFD8EF0A42AFAEB35F0FBE43CFCED8FF0A42BFBEC35F0FC20E703120B9E33
:030B6D00020E690C
:200B7000AA82AB83A2F73392D1F5826002D2F7ACF0E58124F9F8E6FD08E6FE0886F008E6E8
:0E0B9000A2F73392D5F5836002D2F7AFF022C0
:06005800E478FFF6D8FD7C
:200B9E007804EC7011E58224F8500AF582E4C9CACBFCD8EF22EC7820058220E713D5820156
:130BBE0022C3E933F9EA33FAEB33FBEC33FCD8EA15822264
:200036007905E94400601B7A019010A678D375A000E493F2A308B8000205A0D9F4DAF275E2
:02005600A0FF09
:05008C00750800C20729
:200BD100759850438E01438E0475D7D075D6FF438E10D2AFD2AC2285829910990280FB22B0
:200BF100AD82AE83AFF08D828E838FF0120F95FC60188C820DBD00010EC007C006C00512D1
:200C11000BE8D005D006D00780DC22AF8275825AC007120BE87582A5120BE8758204120BC9
:200C3100E8758280120BE8D0078F82120BE8850982120BE8850A82020BE8C0E0C082C08312
:200C5100C007C0D075D000109802801CE508FF04F508EF24C9F582E43400F583E599F074EF
:130C7100F625085003750800D0D0D007D083D082D0E0327F
:02009100C208A3
:0A0C8400C288D2A8D2AF22D20832F3
:1B0C8E0020F71130F6138883A88220F509F6A8837583002280FEF280F5F02265
:200CA900438E805389F0758A40758CA2C28DD28C22AE82AF837C007D00C3EC9EED9F5021B8
:200CC900C007C006C005C004120CA9D004D005D006D007308DFDC28CC28D0CBC00DB0D8051
:200CE900D822438E4053890F758B40758DFFC28FD28E22AE82AF837C007D00C3EC9EED9FAD
:200D09005021C007C006C005C004120CEBD004D005D006D007308FFDC28EC28F0CBC00DBE4
:040D29000D80D8223F
:200D2D00FFA8811818120DFDD2D133E6400730E70B7582002220E70675820122C2D1120D1B
:100D4D00DFE97003F5822220D101B3E433F582226D
:200D5D00120B707900E583B58202800D5003120EB8E583C39582120FE9E5D0C465D020E11C
:200D7D0017EA2DFAEB3EFBEC3FFC50097401120FE9EC4480FC020E69C3EA9DFAEB9EFBEC32
:190D9D009FFC500FC3E499F9E49AFAE49BFBE49CFCB2D1120B9E020E69E5
:20005E007800E84400600A790175A000E4F309D8FC78D2E84400600C7901900001E4F0A3CD
:04007E00D8FCD9FAD7
:200DB6007A10E4FBFCE58225E0F582E58333F583EB33FBEC33FCEB950BF5F0EC950C40064B
:090DD600FCABF0438201DADD22DE
:200DDF007901AA82E68F82B5821318E6B5F00E18E6B5830918E68A82B58202790022B4800B
:200DFF000FE5F0700AE5837006E58270027F00EFB6801518B6001018B6000B18B600060873
:090E1F00080876002208080822E8
:200E280012102C700AE582458345F0700122E430D112F4700BE5F0F47006E58330E70122A4
:140E480090800022700AE5F07006E58320E70122907FFF22DD
:0D0E5C00AC83AB827A007900748E020FBA6D
:200E6900B98003EA13B34010EA2401FAE43BFBE43CFC50047C800582BC000EBB000BBA00CD
:200E890008E4F5F0F583F58222A2D1E582138CF092F78B838A8222E4F583F58275F080F48D
:0F0EA900A2D11322E4F583F58275F0C0747F2285
:1A0EB800E582C583F582A2D133A2D592D11392D5ECCFFCEBCEFBEACDFA22C2
:200ED200120B7030D502B2D1BF0009BC0003020EAD020EA0BC0003020E8AE583B4FF0BE591
:200EF20082B4FF03020EAD020E8AE582B4FF03020EA0C395835007247F400B020E8A248026
:200F1200145003020EA0F582C3ED9AEE9BEF9C40111582C3EA33F9EB33FAEC33FBE433FCCD
:200F32008005E4CCCBCAF9C08275F019C3E99DEA9EEB9FEC9400D5F002802D400EE99DF900
:200F5200EA9EFAEB9FFBEC9400FCC3B3E833F8E58233F582E58333F583C3E933F9EA33FA60
:200F7200EB33FBEC33FC80C4B3E4F938FAE43582FBE43583FCD082500405827C80120B9E13
:030F9200020E81CB
:0D002900758158121099E5826003020026CF
:1C0F950020F71430F6148883A88220F507E6A88375830022E280F7E49322E0226B
:200FB100FCABF0AA83A982749EF582C2D1EC30E716D2D1E9F42401F9EAF43400FAEBF4343F
:0D0FD10000FBECF43400FC120B9E020E69D4
:0B0FDE00A8811818C6B2E7C6020D5D1E
:200FE9006040F82582500274FFF582E824F8501ECCCBCAF9E4CC24F85014CBCAF9E4CB2410
:20100900F8500BCAF9E4CA24F8500379002224086010F8C3EC13FCEB13FBEA13FAE913F9C2
:03102900D8F122D9
:20102C00121087C3749E958240397900120FE930D126E9F42401F582EAF43400F583EBF40A
:20104C003400F5F0ECF43400700AE582458345F0700122E430E70F22EC20E71489828A839B
:1B106C008BF02230D10AE4F582F583F5F074802274FFF582F583F5F0747F2297
:12108700AA82AB83A2F73392D1F5826002D2F7ACF0226E
:04109900758200223A
:00000001FF
