:06000000020029020C05BC
:01000B0032C2
:0100130032BA
:01001B0032B2
:03002300020BC508
:0300930002002642
:0300260002024192
:20009600AE82AF837C007D00C3EC9EED64808FF063F08095F05027C2C19001F4C007C006EE
:2000B600C005C004120C34D2C19001F4120C34D004D005D006D0070CBC00CD0D80CA2290F1
:2000D6000004120096754258754302D206E4F544F5457546487547437582011207483003D8
:2000F60014E4F50BF50CF50DF50E90002275F040120821D204754284754303C206E4F544A9
:20011600F545754648754743758200120748300014E4F50BF50CF50DF50E90002275F040B0
:20013600120821D20222754264754300C206E4F544F545754696754743758201120748904D
:20015600000A120C34754264754300D206E4F544F5457546967547437582011207489000F2
:200176000A020C34754232754300C206E4F544F5457546AF7547437582011207489003E820
:20019600120C34754232754300D206E4F544F5457546AF7547437582010207487542B47595
:2001B6004300D206E4F544F5457546C87547437582001207489003E8120C34754240754361
:2001D60001D206E4F544F5457546C875474375820012074890000A020C347542FA754300BA
:2001F600C206E4F544F5457546AF7547437582011207489003E8120C347542FA754300D200
:2002160006E4F544F5457546AF7547437582010207487542F4754301C206E4F544F54575C1
:2002360046E175474375820002074843947F859393120B4B120BFE90101775F080120B6B92
:20025600900064120C34E4F50BF50CF50DF50E90002275F040120821D202D2043002F930C1
:0702760004F612013C80F1C7
:0E1017007374617274210D0A00000000000065
:0A008200C200C201C202C203C204A0
:20027D00AC82AD83AEF0FF74ECC0E07451C0E07438C0E0743DC0E08C828D838EF0EF120EB9
:20029D004CAC82AD83AEF0FFE58124FCF581E4C0E0C0E0C0E0743FC0E08C828D838EF0EF5C
:2002BD00120CD7AC82AD83AEF0FFE58124FCF5818C828D838EF0EF020DA2AC82AD83AEF0FD
:2002DD00FFE4C0E0C0E074B4C0E07442C0E08C828D838EF0EF120E4CAC82AD83AEF0FFE5E9
:2002FD008124FCF581E4C0E0C0E074FAC0E07444C0E08C828D838EF0EF120A47AC82AD83F4
:20031D00AEF0FFE58124FCF581C004C005C006C00790000075F080743F120E4CAC82AD831F
:20033D00AEF0FFE58124FCF581C004C005C006C00790500075F0C37447120A47AC82AD836D
:20035D00AEF0FFE58124FCF581E4C0E0C0E0C0E07440C0E08C828D838EF0EF120E4CAC82AA
:20037D00AD83AEF0FFE58124FCF5818C828D838EF0EF020DA2AC82AD83AEF0FFC007C006D3
:20039D00C005C004E4C0E0C0E074A0C0E023C0E08C828D838EF0EF120CA7AB82E58124FC19
:2003BD00F581D004D005D006D007EB60087C007D007EA07F41C007C006C005C004C004C090
:2003DD0005C006C00790000075F07A7444120CA7AB82E58124FCF581D004D005D006D00703
:2003FD00EB60087C007D007E7A7F44E4C0E0C0E074A0C0E023C0E08C828D838EF0EF120F92
:20041D0058AC82AD83AEF0FFE58124FCF581E4C0E0C0E074C8C0E07442C0E08C828D838E6E
:20043D00F0EF120E4C85822E85832F85F030F531E58124FCF581E4C0E0C0E074A0C0E02326
:20045D00C0E0852E82852F838530F0E531120CD7A882A983AAF0FBE58124FCF58175320134
:20047D00753300C3E5329464E53364809480400122853282853383C003C002C001C00012E6
:20049D000DD6AC82AD83AEF0FFC02EC02FC030C0318C828D838EF0EF120A47AC82AD83AEA9
:2004BD00F0FFE58124FCF581D000D001D002D003C003C002C001C000C004C005C006C007D2
:2004DD00888289838AF0EB120CD785823485833585F036F537E58124FCF581D000D001D0D3
:2004FD0002D003E5322532FEE53333FFEE2401FEEF3400FF8534828535838536F0E537C022
:20051D0007C006C003C002C001C0001202D7AC82AD83D000D001D002D003D006D0078E829F
:20053D008F83ECF0EDA3F00532E4B532020533020480AF82A293B39200A294B39201A2B3F2
:20055D00B39203300106C20290000122300307200404900001223000072002049000012263
:20057D00EF700FB281853882853983C007120C76D007BF010FB284853882853983C00712AD
:20059D000C76D007BF0216C286853882853983120C76C286853882853983120C76900000C6
:2005BD0022AF82C2847D007E008D038E04C3EB953AEC953B5036300804900001229000C763
:2005DD00E0F538A3E0F5398F82C007C006C00512054FE5828583F0D005D006D00745F06001
:2005FD0004900001220DBD00C00E80BD90000022AF82750B64750C00853C82853D83C007BB
:20061D00120D30AD82AE83D007C2842005030206B9E4F53EF53FC3E53E9464E53F64809443
:20063D008040030206B9E53E253EF9E53F33FAE92401F9EA3400FA78007C00C3E89DEC649E
:20065D00808EF063F08095F050473008049000012289828A83E0F538A3E0F5398F82C007F3
:20067D00C006C005C004C002C001C00012054FE5828583F0D000D001D002D004D005D00614
:20069D00D00745F060049000012208B800AD0C80AA053EE4B53E02053F02063330050302A2
:2006BD000744754063754100E54130E703020744E5402540F9E54133FAE92401F9EA34007C
:2006DD00FA78007C00C3E89DEC64808EF063F08095F050473008049000012289828A83E0A3
:2006FD00F538A3E0F5398F82C007C006C005C004C002C001C00012054FE5828583F0D00000
:20071D00D001D002D004D005D006D00745F060049000012208B800AD0C80AA154074FFB557
:20073D00400215410206C590000022AF82854282854383C007120DD612027DAD82AE83D043
:20075D0007ED2DFDEE33FEC3ED9420EE940340127B907C018B488C49ED24E0F8EE34FCFAD3
:20077D008013EEC313CD13CDFE8D038E048D488E4978007A00E84A7002F8FAA2069280C288
:20079D0082A20692838544828545838546F0E547C007C004C003C002C000120392D000D067
:2007BD0002D003D004D0072008208B3C8C3DD2058F82C007C002C00012060DE5828583F00F
:2007DD00D000D002D00745F0600122200816883A8A3B8F82C0071205BEE5828583F0D00723
:2007FD0045F060012220081685483C85493DC2058F8212060DE5828583F045F060012210AE
:20081D0008012222AD82AE83AFF0E50B120C08A3E50C120C0874022DFDE43EFE8D828E83BF
:20083D008FF0E50D120C08A3E50E020C08AD82AE83AFF0E50B120C08A3E50C120C08740213
:20085D002DFDE43EFE8D828E838FF0E50D120C08A3E50E020C0885824D85834E85F04FAAB6
:20087D004AAB4BAC4C8A828B838CF0120F0FF8A3120F0FF9854D82854E83854FF0120F0FFB
:20089D00FEA3120F0FFFE8C39EF550E99FF55174022AFDE43BFE8C078D828E838FF0120F02
:2008BD000FF557A3120F0FF5587402254DF554E4354EF555854F568554828555838556F011
:2008DD00120F0FF8A3120F0FF9E557C398F552E55899F553C3E4955074808551F063F080F2
:2008FD0095F05033855042855143D206E4F544F5457546C8754742758200C007C006C005AA
:20091D00C004C003C002120748D002D003D004D005D006D0078036C3E49550F542E49551D2
:20093D00F543C206E4F544F5457546C8754742758200C007C006C005C004C003C002120717
:20095D0048D002D003D004D005D006D007900064C007C006C005C004C003C002120C34D086
:20097D0002D003D004D005D006D007C3E4955274808553F063F08095F05033855242855319
:20099D0043C206E4F544F5457546C8754742758201C007C006C005C004C003C00212074863
:2009BD00D002D003D004D005D006D0078036C3E49550F542E49551F543D206E4F544F54575
:2009DD007546C8754742758201C007C006C005C004C003C002120748D002D003D004D00537
:2009FD00D006D0078A828B838CF0120F0FFAA3120F0FFB854D82854E83854FF0EA120C0821
:200A1D00A3EB120C088D828E838FF0120F0FFDA3120F0FFE8554828555838556F0ED120CDA
:0A0A3D0008A3EE120C08900000223E
:200A4700120AEABC0003020E04EF60FA30D502B2D1E583B4FF03020E1AE582B4FF03020E6E
:200A67001A258340072482400B020E042483145003020E1AF582EA8DF0A4A8F0EA8EF0A403
:200A870028F8E435F0F9EB8DF0A428E935F0F9E433CA8FF0A429F9EA35F0FAEBF88EF0A4BE
:200AA70029F9EA35F0FAE433FBEC8DF0A429F9EA35F0FAE43BFBE88FF0A42AFAEB35F0FB66
:200AC700E433CCFD8EF0A42AFAEB35F0FBE43CFCED8FF0A42BFBEC35F0FC20E703120B1840
:030AE700020DE31A
:200AEA00AA82AB83A2F73392D1F5826002D2F7ACF0E58124F9F8E6FD08E6FE0886F008E66F
:0E0B0A00A2F73392D5F5836002D2F7AFF02246
:06005800E478FFF6D8FD7C
:200B18007804EC7011E58224F8500AF582E4C9CACBFCD8EF22EC7820058220E713D58201DC
:130B380022C3E933F9EA33FAEB33FBEC33FCD8EA158222EA
:200036007905E94400601B7A0190102078D375A000E493F2A308B8000205A0D9F4DAF27568
:02005600A0FF09
:05008C00750800C20729
:200B4B00759850438E01438E0475D7D075D6FF438E10D2AFD2AC2285829910990280FB2236
:200B6B00AD82AE83AFF08D828E838FF0120F0FFC60188C820DBD00010EC007C006C00512DD
:200B8B000B62D005D006D00780DC22AF8275825AC007120B627582A5120B62758204120BE2
:200BAB0062758280120B62D0078F82120B62850982120B62850A82020B62C0E0C082C08337
:200BCB00C007C0D075D000109802801CE508FF04F508EF24C9F582E43400F583E599F07476
:130BEB00F625085003750800D0D0D007D083D082D0E03206
:02009100C208A3
:0A0BFE00C288D2A8D2AF22D208327A
:1B0C080020F71130F6138883A88220F509F6A8837583002280FEF280F5F022EB
:200C2300438E805389F0758A40758CA2C28DD28C22AE82AF837C007D00C3EC9EED9F50213E
:200C4300C007C006C005C004120C23D004D005D006D007308DFDC28CC28D0CBC00DB0D805D
:200C6300D822438E4053890F758B40758DFFC28FD28E22AE82AF837C007D00C3EC9EED9F33
:200C83005021C007C006C005C004120C65D004D005D006D007308FFDC28EC28F0CBC00DBF1
:040CA3000D80D822C6
:200CA700FFA8811818120D77D2D133E6400730E70B7582002220E70675820122C2D1120D28
:100CC70059E97003F5822220D101B3E433F582227A
:200CD700120AEA7900E583B58202800D5003120E32E583C39582120F63E5D0C465D020E136
:200CF70017EA2DFAEB3EFBEC3FFC50097401120F63EC4480FC020DE3C3EA9DFAEB9EFBECC6
:190D17009FFC500FC3E499F9E49AFAE49BFBE49CFCB2D1120B18020DE378
:20005E007800E84400600A790175A000E4F309D8FC78D2E84400600C7901900001E4F0A3CD
:04007E00D8FCD9FAD7
:200D30007A10E4FBFCE58225E0F582E58333F583EB33FBEC33FCEB950BF5F0EC950C4006D1
:090D5000FCABF0438201DADD2264
:200D59007901AA82E68F82B5821318E6B5F00E18E6B5830918E68A82B58202790022B48091
:200D79000FE5F0700AE5837006E58270027F00EFB6801518B6001018B6000B18B6000608F9
:090D99000808760022080808226F
:200DA200120FA6700AE582458345F0700122E430D112F4700BE5F0F47006E58330E70122B2
:140DC20090800022700AE5F07006E58320E70122907FFF2264
:0D0DD600AC83AB827A007900748E020F347A
:200DE300B98003EA13B34010EA2401FAE43BFBE43CFC50047C800582BC000EBB000BBA0054
:200E030008E4F5F0F583F58222A2D1E582138CF092F78B838A8222E4F583F58275F080F413
:0F0E2300A2D11322E4F583F58275F0C0747F220B
:1A0E3200E582C583F582A2D133A2D592D11392D5ECCFFCEBCEFBEACDFA2248
:200E4C00120AEA30D502B2D1BF0009BC0003020E27020E1ABC0003020E04E583B4FF0BE530
:200E6C0082B4FF03020E27020E04E582B4FF03020E1AC395835007247F400B020E042480C4
:200E8C00145003020E1AF582C3ED9AEE9BEF9C40111582C3EA33F9EB33FAEC33FBE433FCDA
:200EAC008005E4CCCBCAF9C08275F019C3E99DEA9EEB9FEC9400D5F002802D400EE99DF987
:200ECC00EA9EFAEB9FFBEC9400FCC3B3E833F8E58233F582E58333F583C3E933F9EA33FAE7
:200EEC00EB33FBEC33FC80C4B3E4F938FAE43582FBE43583FCD082500405827C80120B1820
:030F0C00020DFBD8
:0D002900758158121013E582600302002655
:1C0F0F0020F71430F6148883A88220F507E6A88375830022E280F7E49322E022F1
:200F2B00FCABF0AA83A982749EF582C2D1EC30E716D2D1E9F42401F9EAF43400FAEBF434C5
:0D0F4B0000FBECF43400FC120B18020DE367
:0B0F5800A8811818C6B2E7C6020CD72B
:200F63006040F82582500274FFF582E824F8501ECCCBCAF9E4CC24F85014CBCAF9E4CB2496
:200F8300F8500BCAF9E4CA24F8500379002224086010F8C3EC13FCEB13FBEA13FAE913F949
:030FA300D8F12260
:200FA600121001C3749E958240397900120F6330D126E9F42401F582EAF43400F583EBF49D
:200FC6003400F5F0ECF43400700AE582458345F0700122E430E70F22EC20E71489828A8322
:1B0FE6008BF02230D10AE4F582F583F5F074802274FFF582F583F5F0747F221E
:12100100AA82AB83A2F73392D1F5826002D2F7ACF022F4
:0410130075820022C0
:00000001FF
