:06000000020029020E14AB
:01000B0032C2
:0100130032BA
:01001B0032B2
:03002300020D4F7C
:1D008200E4F508F509F50AF50BF50CF50DF50EF50FF510F511F512F513F514F5154C
:0300C40002002611
:030026000202BA19
:2000C7009000F2E0FE7F009000F3E07C004FF508EC4EF5099000F4E0FE7F009000F5E04F42
:2000E700F50AEC4EF50B9000F6E0FE7F009000F7E04FF50CEC4EF50D9000F8E0FE7F009075
:2001070000F9E04FF50EEC4EF50F9000FAE0FE7F009000FBE04FF510EC4EF5119000FCE01D
:20012700FE7F009000FDE04FF512EC4EF5139000FEE0FE7F009000FFE04FF514EC4EF51540
:200147009000F275F000020CA0E4F516F517FCFDC3E5169410E517648094805054EC2CFA03
:20016700ED33FBEA2401FAEB3400FBE51624D9F582E5173400F583E0F9780074012516FE24
:20018700E43517FFEE24D9F582EF3400F583E07E004200EE42018A828B83E8F0E9A3F00CE1
:2001A700BC00010D74022516F516E43517F517809F900001E0FEA3E0FFBE0113BF0010D2F3
:2001C700C0900064120E17C2C0900064020E1722AE82AF837C007D00C3EC9EED64808FF076
:2001E70063F08095F05027C2C19001F4C007C006C005C004120E17D2C19001F4120E17D0B5
:2002070004D005D006D0070CBC00CD0D80CA229000041201D7754458754502C208E4F5460F
:20022700F547754848754943758201120A97300302D205754458754502C208E4F546F547CC
:20024700754848754943758202120A97300402D206754484754503D208E4F546F5477548EB
:2002670048754943758200120A97100101221203A3D20222754464754500D208E4F546F5DD
:2002870047754896754943758201120A9790000A120E17754464754500C208E4F546F54744
:2002A700754896754943758201120A9790000A020E172243947F859393120C72120E0D9007
:2002C700124475F080120CA01202167F007401B5080614B5090280028060C0071200C7D097
:2002E70007752814752900752A14752B0085122C85132D850E2E850F2F900028C0071203AE
:20030700B190124D75F080120CA0D007E4F528F529F52AF52B85122C85132D850E2E850F81
:200327002F900000C0071203B190128775F080120CA0120D251200C7D007C007121025E5B7
:2003470082D00760100F751B008F1C758203C007120CF6D007C007121008E582D007601038
:200367001F751B008F1C758203C007120CF6D007C007121042E582D007600AC007120D2592
:1C0387001200C7D007D2A790000AC007120E17C2A790000A120E17D0070202D4B0
:201244007374617274210D0A00676F5F706F736974696F6E283430302C3230302C32303042
:201264002C6C6566745F72696768745F73706565642C75705F646F776E5F737065656429E5
:201284000D0A00676F5F706F736974696F6E28302C302C302C6C6566745F72696768745FC6
:1C12A40073706565642C75705F646F776E5F7370656564290D0A00000000000045
:1B009F00E4F522F523F524F525F526F527C200C201C202C203C204C205C20666
:2003A300E4F522F523F524F525F526F52722AE82AF83EEC39522FCEF9523FDE528C39524A8
:2003C300FAE5299525FBE52AC39526F8E52B9527F9EA4B7003020488C3E49A74808BF063CA
:2003E300F08095F0504A852E82852F83C007C006C005C004C003C002C001C000120F7885C5
:20040300824685834785F048F549D000D001D002D0038A448B45D208758201C001C000127E
:200423000A97D000D001D004D005D006D007804FC3E49AFAE49BFB852E82852F83C007C0AA
:2004430006C005C004C003C002C001C000120F7885824685834785F048F549D000D001D063
:2004630002D0038A448B45C208758201C001C000120A97D000D001D004D005D006D0078594
:200483002824852925E849700302051CC3E498748089F063F08095F0503A852E82852F8379
:2004A300C007C006C005C004C001C000120F7885824685834785F048F549D000D001884405
:2004C3008945D208758202120A97D004D005D006D007803FC3E498F8E499F9852E82852F1A
:2004E30083C007C006C005C004C001C000120F7885824685834785F048F549D000D0018886
:20050300448945C208758202120A97D004D005D006D007852A26852B27EC4D700122C3E4DB
:200523009C74808DF063F08095F05032852C82852D83C007C006C005C004120F788582466D
:2005430085834785F048F549D004D0058C448D45C208758200120A97D006D0078037C3E484
:200563009CFCE49DFD852C82852D83C007C006C005C004120F7885824685834785F048F5FD
:2005830049D004D0058C448D45D208758200120A97D006D0078E228F2322AC82AD83AEF013
:2005A300FF74ECC0E07451C0E07438C0E0743DC0E08C828D838EF0EF121079AC82AD83AE05
:2005C300F0FFE58124FCF581E4C0E0C0E0C0E0743FC0E08C828D838EF0EF120EADAC82ADE3
:2005E30083AEF0FFE58124FCF5818C828D838EF0EF020F85AC82AD83AEF0FFE4C0E0C0E09C
:2006030074B4C0E07442C0E08C828D838EF0EF121079AC82AD83AEF0FFE58124FCF581E4B8
:20062300C0E0C0E074FAC0E07444C0E08C828D838EF0EF120B6EAC82AD83AEF0FFE5812476
:20064300FCF581C004C005C006C00790000075F080743F121079AC82AD83AEF0FFE58124C7
:20066300FCF581C004C005C006C00790500075F0C37447120B6EAC82AD83AEF0FFE581241C
:20068300FCF581E4C0E0C0E0C0E07440C0E08C828D838EF0EF121079AC82AD83AEF0FFE5C7
:2006A3008124FCF5818C828D838EF0EF020F85AC82AD83AEF0FFC007C006C005C004E4C04A
:2006C300E0C0E074A0C0E023C0E08C828D838EF0EF120E7DAB82E58124FCF581D004D00526
:2006E300D006D007EB60087C007D007EA07F41C007C006C005C004C004C005C006C0079064
:20070300000075F07A7444120E7DAB82E58124FCF581D004D005D006D007EB60087C007DD7
:20072300007E7A7F44E4C0E0C0E074A0C0E023C0E08C828D838EF0EF121185AC82AD83AE21
:20074300F0FFE58124FCF581E4C0E0C0E074C8C0E07442C0E08C828D838EF0EF12107985AA
:20076300823085833185F032F533E58124FCF581E4C0E0C0E074A0C0E023C0E08530828569
:2007830031838532F0E533120EADA882A983AAF0FBE58124FCF581E4F534F535C3E5349488
:2007A30064E53564809480400122853482853583C003C002C001C000120F78AC82AD83AE3A
:2007C300F0FFC030C031C032C0338C828D838EF0EF120B6EAC82AD83AEF0FFE58124FCF5D5
:2007E30081D000D001D002D003C003C002C001C000C004C005C006C007888289838AF0EB98
:20080300120EAD85823685833785F038F539E58124FCF581D000D001D002D003E5342534FD
:20082300FEE53533FFEE2411FEEF3400FF8536828537838538F0E539C007C006C003C002CF
:20084300C001C0001205F7AC82AD83D000D001D002D003D006D0078E828F83ECF0EDA3F037
:200863000534E4B53402053502079FAF82A293B39200A294B39201A2B3B39203A2B6B3922A
:2008830004300006C202900001223003072005049000012230040720060490000122300145
:2008A300072002049000012230010C300209E4F522F523F524F525EF701AC281853A828515
:2008C3003B83C007120E4CD281853A82853B83120E4CD007BF011AC284853A82853B83C0A6
:2008E30007120E4CD284853A82853B83120E4CD007BF0216C286853A82853B83120E4CC294
:2009030086853A82853B83120E4C90000022AF827D007E008D038E04C3EB953CEC953D50D1
:2009230036300A04900001229000D7E0F53AA3E0F53B8F82C007C006C00512086EE582858D
:2009430083F0D005D006D00745F06004900001220DBD00C00E80BD90000022AF82751D64A5
:20096300751E00853E82853F83C007120F06AD82AE83D007200703020A08E4F540F541C3E0
:20098300E5409464E541648094804003020A08E5402540F9E54133FAE92411F9EA3400FABD
:2009A30078007C00C3E89DEC64808EF063F08095F05047300A049000012289828A83E0F5DD
:2009C3003AA3E0F53B8F82C007C006C005C004C002C001C00012086EE5828583F0D000D036
:2009E30001D002D004D005D006D00745F060049000012208B800AD0C80AA0540E4B54002BC
:200A03000541020982300703020A93754263754300E54330E703020A93E5422542F9E543C5
:200A230033FAE92411F9EA3400FA78007C00C3E89DEC64808EF063F08095F05047300A04A0
:200A43009000012289828A83E0F53AA3E0F53B8F82C007C006C005C004C002C001C000128A
:200A6300086EE5828583F0D000D001D002D004D005D006D00745F060049000012208B800C9
:200A8300AD0C80AA154274FFB542021543020A1490000022AF82854482854583C007120FD2
:200AA3007812059DAD82AE83D007C3ED9490EE940140127BC87C008B4A8C4BED2470F8EE55
:200AC30034FEFA8013EEC313CD13CDFE8D038E048D4A8E4B78007A00E84A7002F8FAA208E1
:200AE3009280C282A2089283A20892858546828547838548F0E549C007C004C003C002C0C6
:200B0300001206B2D000D002D003D004D007200A208B3E8C3FD2078F82C007C002C00012C5
:200B2300095EE5828583F0D000D002D00745F0600122200A16883C8A3D8F82C007120911EC
:200B4300E5828583F0D00745F0600122200A16854A3E854B3FC2078F8212095EE582858386
:0B0B6300F045F0600122100A01222280
:200B6E00120C11BC0003020FDAEF60FA30D502B2D1E583B4FF03020FF0E582B4FF03020F6E
:200B8E00F0258340072482400B020FDA2483145003020FF0F582EA8DF0A4A8F0EA8EF0A457
:200BAE0028F8E435F0F9EB8DF0A428E935F0F9E433CA8FF0A429F9EA35F0FAEBF88EF0A496
:200BCE0029F9EA35F0FAE433FBEC8DF0A429F9EA35F0FAE43BFBE88FF0A42AFAEB35F0FB3E
:200BEE00E433CCFD8EF0A42AFAEB35F0FBE43CFCED8FF0A42BFBEC35F0FC20E703120C3FF0
:030C0E00020FB919
:200C1100AA82AB83A2F73392D1F5826002D2F7ACF0E58124F9F8E6FD08E6FE0886F008E646
:0E0C3100A2F73392D5F5836002D2F7AFF0221E
:06005800E478FFF6D8FD7C
:200C3F007804EC7011E58224F8500AF582E4C9CACBFCD8EF22EC7820058220E713D58201B4
:130C5F0022C3E933F9EA33FAEB33FBEC33FCD8EA158222C2
:20003600795AE94400601B7A019012BB781275A001E493F2A308B8000205A0D9F4DAF27536
:02005600A0FF09
:0800BA00751800751A00C20957
:200C7200759850438E01438E0475D79875D6FF438E10D2AFD2ACD29C2285829910990280F5
:200C9200FB2285829BE59A30E1FB539AFD22AD82AE83AFF08D828E838FF012113CFC60187B
:200CB2008C820DBD00010EC007C006C005120C8BD005D006D00780DC22AD82AE83AFF08DB4
:200CD200828E838FF012113CFC60188C820DBD00010EC007C006C005120C94D005D006D0B7
:200CF2000780DC22AF8275825AC007120C8B7582A5120C8B758204120C8B758280120C8B62
:200D1200D0078F82120C8B851B82120C8B851C82020C8B75825A120C8B7582A5120C8B75F5
:200D32008204120C8B758283120C8B758200120C8B758210120C8B758210020C8BC0E0C0FF
:200D520082C083C007C006C0D075D000209803020E00AF99C298900117E06003020DE29081
:200D720000EBE09000EAF09000ECE09000EBF09000EDE09000ECF09000EEE09000EDF09041
:200D920000EFE09000EEF09000F0E09000EFF09000F0EFF09000EAE0FEBE5A529000EBE0B9
:200DB200FEBEA54A9000ECE0FEBE24429000EDE0FEBE833A9000EEE070349000EFE0FEBE05
:200DD200102CBF102990011774FFF0751A00801EE51A24F2F582E43400F583EFF0051A7407
:1B0DF20020B51A0A900117E4F09000E914F0D0D0D006D007D083D082D0E03220
:2012C000005AA5048300101000000000000000000000000000000000000000000000000068
:2012E0000000000000000000000000000000000000000000000000000000000000000000EE
:15130000000000000000000000000000000000000000000000D8
:0200C200C20A70
:0A0E0D00C288D2A8D2AF22D20A3266
:200E1700AE82AF837C007D00C3EC9EED9F50147A227B071ABAFF011BEA4B70F70CBC00E8CA
:200E37000D80E522438E4053890F758B40758DFFC28FD28E22AE82AF837C007D00C3EC9E4F
:200E5700ED9F5021C007C006C005C004120E3BD004D005D006D007308FFDC28EC28F0CBC92
:060E770000DB0D80D82213
:200E7D00FFA8811818120F4DD2D133E6400730E70B7582002220E70675820122C2D1120F76
:100E9D002FE97003F5822220D101B3E433F58222CC
:200EAD00120C117900E583B58202800D500312105FE583C39582121190E5D0C465D020E1D7
:200ECD0017EA2DFAEB3EFBEC3FFC50097401121190EC4480FC020FB9C3EA9DFAEB9EFBECE7
:190EED009FFC500FC3E499F9E49AFAE49BFBE49CFCB2D1120C3F020FB9A1
:20005E007800E84400600A790175A000E4F309D8FC7811E84401600C7902900001E4F0A38C
:04007E00D8FCD9FAD7
:200F06007A10E4FBFCE58225E0F582E58333F583EB33FBEC33FCEB951DF5F0EC951E4006D5
:090F2600FCABF0438201DADD228C
:200F2F007901AA82E68F82B5821318E6B5F00E18E6B5830918E68A82B58202790022B480B9
:200F4F000FE5F0700AE5837006E58270027F00EFB6801518B6001018B6000B18B600060821
:090F6F0008087600220808082297
:0D0F7800AC83AB827A007900748E021161A7
:200F85001211D3700AE582458345F0700122E430D112F4700BE5F0F47006E58330E701229E
:140FA50090800022700AE5F07006E58320E70122907FFF227F
:200FB900B98003EA13B34010EA2401FAE43BFBE43CFC50047C800582BC000EBB000BBA007C
:200FD90008E4F5F0F583F58222A2D1E582138CF092F78B838A8222E4F583F58275F080F43C
:0F0FF900A2D11322E4F583F58275F0C0747F2234
:2010080020A016900014120E1720A00D30A0FD900014120E17758201227582002220A11698
:20102800900014120E1720A10D30A1FD900014120E17758201227582002220C41690001485
:17104800120E1720C40D30C4FD900014120E1775820122758200226A
:1A105F00E582C583F582A2D133A2D592D11392D5ECCFFCEBCEFBEACDFA2219
:20107900120C1130D502B2D1BF0009BC0003020FFD020FF0BC0003020FDAE583B4FF0BE553
:2010990082B4FF03020FFD020FDAE582B4FF03020FF0C395835007247F400B020FDA248039
:2010B900145003020FF0F582C3ED9AEE9BEF9C40111582C3EA33F9EB33FAEC33FBE433FCD4
:2010D9008005E4CCCBCAF9C08275F019C3E99DEA9EEB9FEC9400D5F002802D400EE99DF958
:2010F900EA9EFAEB9FFBEC9400FCC3B3E833F8E58233F582E58333F583C3E933F9EA33FAB8
:20111900EB33FBEC33FC80C4B3E4F938FAE43582FBE43583FCD082500405827C80120C3FC8
:03113900020FD1D1
:0D00290075814B121240E582600302002633
:1C113C0020F71430F6148883A88220F507E6A88375830022E280F7E49322E022C2
:20115800FCABF0AA83A982749EF582C2D1EC30E716D2D1E9F42401F9EAF43400FAEBF43496
:0D11780000FBECF43400FC120C3F020FB938
:0B118500A8811818C6B2E7C6020EAD24
:201190006040F82582500274FFF582E824F8501ECCCBCAF9E4CC24F85014CBCAF9E4CB2467
:2011B000F8500BCAF9E4CA24F8500379002224086010F8C3EC13FCEB13FBEA13FAE913F91A
:0311D000D8F12231
:2011D30012122EC3749E95824039790012119030D126E9F42401F582EAF43400F583EBF410
:2011F3003400F5F0ECF43400700AE582458345F0700122E430E70F22EC20E71489828A83F3
:1B1213008BF02230D10AE4F582F583F5F074802274FFF582F583F5F0747F22EE
:12122E00AA82AB83A2F73392D1F5826002D2F7ACF022C5
:041240007582002291
:00000001FF
