:06000000020029020B8240
:01000B0032C2
:0100130032BA
:01001B0032B2
:03002300020B428B
:03009C0002002639
:03002600020229AA
:20009F00AE82AF837C007D00C3EC9EED64808FF063F08095F05027C2C19001F4C007C006E5
:2000BF00C005C004120B96D2C19001F4120B96D004D005D006D0070CBC00CD0D80CA229026
:2000DF00000412009F753E58753F02D206E4F540F5417542487543437582011208F1300334
:2000FF0002D204753E84753F03C206E4F540F5417542487543437582001208F130000512C1
:20011F0002DFD20222753E64753F00C206E4F540F5417542967543437582011208F190002C
:20013F000A120B96753E64753F00D206E4F540F5417542967543437582011208F190000A0C
:20015F00020B96753E32753F00C206E4F540F5417542AF7543437582011208F19003E8123C
:20017F000B96753E32753F00D206E4F540F5417542AF7543437582010208F1753EB4753F90
:20019F0000D206E4F540F5417542C87543437582001208F19003E8120B96753E40753F01C7
:2001BF00D206E4F540F5417542C87543437582001208F190000A020B96753EFA753F00C21D
:2001DF0006E4F540F5417542AF7543437582011208F19003E8120B96753EFA753F00D206E0
:2001FF00E4F540F5417542AF7543437582010208F1753EF4753F01C206E4F540F541754213
:20021F00E17543437582000208F143947F859393120AC8120B7B900F7975F080120AE890E3
:20023F000064120B961200DED202D2043002F93004F6750900750A00758203120B139000E2
:20025F000212009F75263275270075282C7529019000001202E9E4F526F527752890752988
:20027F00019000001202E9E4F526F5277528907529019001901202E97526C8752700752830
:20029F002C7529019001901202E9E4F526F5277528907529019001901202E9E4F526F52736
:2002BF007528907529019002941202E9E4F526F5277528F47529019000001202E90202470D
:0E0F79007374617274210D0A00000000000004
:13008200E4F522F523F524F525C200C201C202C203C20451
:2002DF00E4F522F523F524F52522AE82AF83EEC39522FCEF9523FDE526C39524FAE527950B
:2002FF0025FBEC4D70030203A3C3E49C74808DF063F08095F05042852882852983C007C0E6
:20031F0006C005C004C003C002120D0485824085834185F042F543D002D003D004D0058C2E
:20033F003E8D3FD206758200C003C0021208F1D002D003D006D0078047C3E49CFCE49DFD5F
:20035F00852882852983C007C006C005C004C003C002120D0485824085834185F042F543E1
:20037F00D002D003D004D0058C3E8D3FC206758200C003C0021208F1D002D003D006D007D9
:20039F008E228F23EA4B606DC3E49A74808BF063F08095F0502A852882852983C003C00273
:2003BF00120D0485824085834185F042F543D002D0038A3E8B3FC2067582011208F1802FCB
:2003DF00C3E49AFAE49BFB852882852983C003C002120D0485824085834185F042F543D0F2
:2003FF0002D0038A3E8B3FD2067582011208F185262485272522AC82AD83AEF0FF74ECC0BF
:20041F00E07451C0E07438C0E0743DC0E08C828D838EF0EF120DAEAC82AD83AEF0FFE58122
:20043F0024FCF581E4C0E0C0E0C0E0743FC0E08C828D838EF0EF120C39AC82AD83AEF0FF13
:20045F00E58124FCF5818C828D838EF0EF020D11AC82AD83AEF0FFE4C0E0C0E074B4C0E0EF
:20047F007442C0E08C828D838EF0EF120DAEAC82AD83AEF0FFE58124FCF581E4C0E0C0E094
:20049F0074FAC0E07444C0E08C828D838EF0EF1209C4AC82AD83AEF0FFE58124FCF581C0B6
:2004BF0004C005C006C00790000075F080743F120DAEAC82AD83AEF0FFE58124FCF581C01B
:2004DF0004C005C006C00790500075F0C374471209C4AC82AD83AEF0FFE58124FCF581E42A
:2004FF00C0E0C0E0C0E07440C0E08C828D838EF0EF120DAEAC82AD83AEF0FFE58124FCF5DB
:20051F00818C828D838EF0EF020D11AC82AD83AEF0FFC007C006C005C004E4C0E0C0E074E7
:20053F00A0C0E023C0E08C828D838EF0EF120C09AB82E58124FCF581D004D005D006D00768
:20055F00EB60087C007D007EA07F41C007C006C005C004C004C005C006C00790000075F031
:20057F007A7444120C09AB82E58124FCF581D004D005D006D007EB60087C007D007E7A7FC1
:20059F0044E4C0E0C0E074A0C0E023C0E08C828D838EF0EF120EBAAC82AD83AEF0FFE58197
:2005BF0024FCF581E4C0E0C0E074C8C0E07442C0E08C828D838EF0EF120DAE85822A85839F
:2005DF002B85F02CF52DE58124FCF581E4C0E0C0E074A0C0E023C0E0852A82852B83852C62
:2005FF00F0E52D120C39A882A983AAF0FBE58124FCF581E4F52EF52FC3E52E9464E52F642B
:20061F00809480400122852E82852F83C003C002C001C000120D04AC82AD83AEF0FFC02A4A
:20063F00C02BC02CC02D8C828D838EF0EF1209C4AC82AD83AEF0FFE58124FCF581D000D0D6
:20065F0001D002D003C003C002C001C000C004C005C006C007888289838AF0EB120C398562
:20067F00823085833185F032F533E58124FCF581D000D001D002D003E52E252EFEE52F33B4
:20069F00FFEE2401FEEF3400FF8530828531838532F0E533C007C006C003C002C001C00047
:2006BF0012046FAC82AD83D000D001D002D003D006D0078E828F83ECF0EDA3F0052EE4B5FB
:2006DF002E02052F020617AF82A293B39200A294B39201A2B3B39203300106C20290000128
:2006FF00223003072004049000012230000720020490000122EF701AC28185348285358360
:20071F00C007120BD8D281853482853583120BD8D007BF011AC284853482853583C00712F6
:20073F000BD8D284853482853583120BD8D007BF0216C286853482853583120BD8C28685C4
:20075F003482853583120BD890000022AF827D007E008D038E04C3EB9536EC9537503630AB
:20077F000804900001229000C7E0F534A3E0F5358F82C007C006C0051206E6E5828583F0CE
:20079F00D005D006D00745F06004900001220DBD00C00E80BD90000022AF82750B64750C4F
:2007BF0000853882853983C007120C92AD82AE83D007200503020862E4F53AF53BC3E53A33
:2007DF009464E53B648094804003020862E53A253AF9E53B33FAE92401F9EA3400FA7800E0
:2007FF007C00C3E89DEC64808EF063F08095F050473008049000012289828A83E0F534A326
:20081F00E0F5358F82C007C006C005C004C002C001C0001206E6E5828583F0D000D001D077
:20083F0002D004D005D006D00745F060049000012208B800AD0C80AA053AE4B53A02053BFE
:20085F000207DC3005030208ED753C63753D00E53D30E7030208EDE53C253CF9E53D33FAA2
:20087F00E92401F9EA3400FA78007C00C3E89DEC64808EF063F08095F050473008049000F5
:20089F00012289828A83E0F534A3E0F5358F82C007C006C005C004C002C001C0001206E6E0
:2008BF00E5828583F0D000D001D002D004D005D006D00745F060049000012208B800AD0C2C
:2008DF0080AA153C74FFB53C02153D02086E90000022AF82853E82853F83C007120D0412E3
:2008FF000415AD82AE83D007C3ED9490EE940140127BC87C008B448C45ED2470F8EE34FEE8
:20091F00FA8013EEC313CD13CDFE8D038E048D448E4578007A00E84A7002F8FAA2069280B4
:20093F00C282A20692838540828541838542F0E543C007C004C003C002C00012052AD00047
:20095F00D002D003D004D0072008208B388C39D2058F82C007C002C0001207B8E5828583E7
:20097F00F0D000D002D00745F060012220081688368A378F82C00712076BE5828583F0D0EF
:20099F000745F0600122200816854438854539C2058F821207B8E5828583F045F060012277
:0509BF001008012222D6
:2009C400120A67BC0003020D66EF60FA30D502B2D1E583B4FF03020D7CE582B4FF03020DB4
:2009E4007C258340072482400B020D662483145003020D7CF582EA8DF0A4A8F0EA8EF0A463
:200A040028F8E435F0F9EB8DF0A428E935F0F9E433CA8FF0A429F9EA35F0FAEBF88EF0A441
:200A240029F9EA35F0FAE433FBEC8DF0A429F9EA35F0FAE43BFBE88FF0A42AFAEB35F0FBE9
:200A4400E433CCFD8EF0A42AFAEB35F0FBE43CFCED8FF0A42BFBEC35F0FC20E703120A9547
:030A6400020D453B
:200A6700AA82AB83A2F73392D1F5826002D2F7ACF0E58124F9F8E6FD08E6FE0886F008E6F2
:0E0A8700A2F73392D5F5836002D2F7AFF022CA
:06005800E478FFF6D8FD7C
:200A95007804EC7011E58224F8500AF582E4C9CACBFCD8EF22EC7820058220E713D5820160
:130AB50022C3E933F9EA33FAEB33FBEC33FCD8EA1582226E
:200036007905E94400601B7A01900F8278D375A000E493F2A308B8000205A0D9F4DAF27507
:02005600A0FF09
:05009500750800C20720
:200AC800759850438E01438E0475D7D075D6FF438E10D2AFD2AC2285829910990280FB22BA
:200AE800AD82AE83AFF08D828E838FF0120E71FC60188C820DBD00010EC007C006C0051200
:200B08000ADFD005D006D00780DC22AF8275825AC007120ADF7582A5120ADF758204120AF2
:200B2800DF758280120ADFD0078F82120ADF850982120ADF850A82020ADFC0E0C082C0834D
:200B4800C007C0D075D000109802801CE508FF04F508EF24C9F582E43400F583E599F074F9
:130B6800F625085003750800D0D0D007D083D082D0E03289
:02009A00C2089A
:0A0B7B00C288D2A8D2AF22D20832FD
:200B8500438E805389F0758A40758CA2C28DD28C22AE82AF837C007D00C3EC9EED9F5021DD
:200BA500C007C006C005C004120B85D004D005D006D007308DFDC28CC28D0CBC00DB0D809B
:200BC500D822438E4053890F758B40758DFFC28FD28E22AE82AF837C007D00C3EC9EED9FD2
:200BE5005021C007C006C005C004120BC7D004D005D006D007308FFDC28EC28F0CBC00DB2F
:040C05000D80D82264
:200C0900FFA8811818120CD9D2D133E6400730E70B7582002220E70675820122C2D1120C66
:100C2900BBE97003F5822220D101B3E433F58222B6
:200C3900120A677900E583B58202800D5003120D94E583C39582120EC5E5D0C465D020E195
:200C590017EA2DFAEB3EFBEC3FFC50097401120EC5EC4480FC020D45C3EA9DFAEB9EFBECA1
:190C79009FFC500FC3E499F9E49AFAE49BFBE49CFCB2D1120A95020D4539
:20005E007800E84400600A790175A000E4F309D8FC78D2E84400600C7901900001E4F0A3CD
:04007E00D8FCD9FAD7
:200C92007A10E4FBFCE58225E0F582E58333F583EB33FBEC33FCEB950BF5F0EC950C400670
:090CB200FCABF0438201DADD2203
:200CBB007901AA82E68F82B5821318E6B5F00E18E6B5830918E68A82B58202790022B48030
:200CDB000FE5F0700AE5837006E58270027F00EFB6801518B6001018B6000B18B600060898
:090CFB000808760022080808220E
:0D0D0400AC83AB827A007900748E020E96EB
:200D1100120F08700AE582458345F0700122E430D112F4700BE5F0F47006E58330E70122E1
:140D310090800022700AE5F07006E58320E70122907FFF22F5
:200D4500B98003EA13B34010EA2401FAE43BFBE43CFC50047C800582BC000EBB000BBA00F2
:200D650008E4F5F0F583F58222A2D1E582138CF092F78B838A8222E4F583F58275F080F4B2
:0F0D8500A2D11322E4F583F58275F0C0747F22AA
:1A0D9400E582C583F582A2D133A2D592D11392D5ECCFFCEBCEFBEACDFA22E7
:200DAE00120A6730D502B2D1BF0009BC0003020D89020D7CBC0003020D66E583B4FF0BE52F
:200DCE0082B4FF03020D89020D66E582B4FF03020D7CC395835007247F400B020D662480DF
:200DEE00145003020D7CF582C3ED9AEE9BEF9C40111582C3EA33F9EB33FAEC33FBE433FC18
:200E0E008005E4CCCBCAF9C08275F019C3E99DEA9EEB9FEC9400D5F002802D400EE99DF925
:200E2E00EA9EFAEB9FFBEC9400FCC3B3E833F8E58233F582E58333F583C3E933F9EA33FA85
:200E4E00EB33FBEC33FC80C4B3E4F938FAE43582FBE43583FCD082500405827C80120A9542
:030E6E00020D5D15
:0D002900758145120F75E582600302002607
:1C0E710020F71430F6148883A88220F507E6A88375830022E280F7E49322E02290
:200E8D00FCABF0AA83A982749EF582C2D1EC30E716D2D1E9F42401F9EAF43400FAEBF43464
:0D0EAD0000FBECF43400FC120A95020D4528
:0B0EBA00A8811818C6B2E7C6020C3968
:200EC5006040F82582500274FFF582E824F8501ECCCBCAF9E4CC24F85014CBCAF9E4CB2435
:200EE500F8500BCAF9E4CA24F8500379002224086010F8C3EC13FCEB13FBEA13FAE913F9E8
:030F0500D8F122FE
:200F0800120F63C3749E958240397900120EC530D126E9F42401F582EAF43400F583EBF479
:200F28003400F5F0ECF43400700AE582458345F0700122E430E70F22EC20E71489828A83C0
:1B0F48008BF02230D10AE4F582F583F5F074802274FFF582F583F5F0747F22BC
:120F6300AA82AB83A2F73392D1F5826002D2F7ACF02293
:040F7500758200225F
:00000001FF
