:06000000020029020BCFF3
:01000B0032C2
:0100130032BA
:01001B0032B2
:03002300020B8F3E
:0300A40002002631
:0300260002018A4A
:2000A700AE82AF837C007D00C3EC9EED64808FF063F08095F05027C2C19001F4C007C006DD
:2000C700C005C004120BE3D2C19001F4120BE3D004D005D006D0070CBC00CD0D80CA229084
:2000E70000041200A7754258754302C208E4F544F54575464875474375820112093A3003D0
:2001070002D205754258754302C208E4F544F54575464875474375820212093A300402D2BD
:2001270006754284754303D208E4F544F54575464875474375820012093A100101221202F5
:2001470047D20222754264754300D208E4F544F54575469675474375820112093A90000A20
:20016700120BE3754264754300C208E4F544F54575469675474375820112093A90000A024B
:200187000BE32243947F859393120B15120BC8900FC675F080120B35900064120BE312008E
:2001A700E63002FD3005FA750900750A00758203120B609000021200A77528327529007553
:2001C7002A32752B00752C90752D01900000120255E4F528F529F52AF52B752CF4752D01B9
:2001E7009000001202557528C8752900752AC8752B00752C90752D01900190120255E4F5BE
:2002070028F529F52AF52B752CF4752D01900190120255E4F528F529F52AF52B752CF47528
:200227002D01900294120255E4F528F529F52AF52B752C26752D029000001202550201A88D
:0E0FC6007374617274210D0A000000000000B7
:1B008200E4F522F523F524F525F526F527C200C201C202C203C204C205C20683
:20024700E4F522F523F524F525F526F52722AE82AF83EEC39522FCEF9523FDE528C3952405
:20026700FAE5299525FBE52AC39526F8E52B9527F9EC4D700302033AC3E49C74808DF0636E
:20028700F08095F05052852C82852D83C007C006C005C004C003C002C001C000120D518547
:2002A700824485834585F046F547D000D001D002D003D004D0058C428D43C208758200C01F
:2002C70003C002C001C00012093AD000D001D002D003D006D0078057C3E49CFCE49DFD8570
:2002E7002C82852D83C007C006C005C004C003C002C001C000120D5185824485834585F07B
:2003070046F547D000D001D002D003D004D0058C428D43D208758200C003C002C001C000F0
:2003270012093AD000D001D002D003D006D0078E228F23EA4B70030203CEC3E49A74808BD1
:20034700F063F08095F0503A852C82852D83C003C002C001C000120D5185824485834585C9
:20036700F046F547D000D001D002D0038A428B43D208758201C001C00012093AD000D001DB
:20038700803FC3E49AFAE49BFB852C82852D83C003C002C001C000120D518582448583456C
:2003A70085F046F547D000D001D002D0038A428B43C208758201C001C00012093AD000D027
:2003C70001852824852925E849606DC3E498748089F063F08095F0502A852C82852D83C0CD
:2003E70001C000120D5185824485834585F046F547D000D00188428943D208758202120911
:200407003A802FC3E498F8E499F9852C82852D83C001C000120D5185824485834585F04693
:20042700F547D000D00188428943C20875820212093A852A26852B2722AC82AD83AEF0FF61
:2004470074ECC0E07451C0E07438C0E0743DC0E08C828D838EF0EF120DFBAC82AD83AEF0F2
:20046700FFE58124FCF581E4C0E0C0E0C0E0743FC0E08C828D838EF0EF120C86AC82AD83D6
:20048700AEF0FFE58124FCF5818C828D838EF0EF020D5EAC82AD83AEF0FFE4C0E0C0E07431
:2004A700B4C0E07442C0E08C828D838EF0EF120DFBAC82AD83AEF0FFE58124FCF581E4C04B
:2004C700E0C0E074FAC0E07444C0E08C828D838EF0EF120A11AC82AD83AEF0FFE58124FCF6
:2004E700F581C004C005C006C00790000075F080743F120DFBAC82AD83AEF0FFE58124FCA6
:20050700F581C004C005C006C00790500075F0C37447120A11AC82AD83AEF0FFE58124FCD7
:20052700F581E4C0E0C0E0C0E07440C0E08C828D838EF0EF120DFBAC82AD83AEF0FFE58120
:2005470024FCF5818C828D838EF0EF020D5EAC82AD83AEF0FFC007C006C005C004E4C0E071
:20056700C0E074A0C0E023C0E08C828D838EF0EF120C56AB82E58124FCF581D004D005D0BC
:2005870006D007EB60087C007D007EA07F41C007C006C005C004C004C005C006C007900091
:2005A7000075F07A7444120C56AB82E58124FCF581D004D005D006D007EB60087C007D005E
:2005C7007E7A7F44E4C0E0C0E074A0C0E023C0E08C828D838EF0EF120F07AC82AD83AEF00F
:2005E700FFE58124FCF581E4C0E0C0E074C8C0E07442C0E08C828D838EF0EF120DFB8582F7
:200607002E85832F85F030F531E58124FCF581E4C0E0C0E074A0C0E023C0E0852E82852F23
:20062700838530F0E531120C86A882A983AAF0FBE58124FCF581E4F532F533C3E5329464E5
:20064700E53364809480400122853282853383C003C002C001C000120D51AC82AD83AEF03A
:20066700FFC02EC02FC030C0318C828D838EF0EF120A11AC82AD83AEF0FFE58124FCF58107
:20068700D000D001D002D003C003C002C001C000C004C005C006C007888289838AF0EB1264
:2006A7000C8685823485833585F036F537E58124FCF581D000D001D002D003E5322532FEA4
:2006C700E53333FFEE2401FEEF3400FF8534828535838536F0E537C007C006C003C002C085
:2006E70001C00012049AAC82AD83D000D001D002D003D006D0078E828F83ECF0EDA3F005AE
:2007070032E4B532020533020642AF82A293B39200A294B39201A2B3B39203A2B6B39204EC
:20072700300006C2029000012230030720050490000122300407200604900001223001079F
:200747002002049000012230010C300209E4F522F523F524F525EF701AC281853882853942
:2007670083C007120C25D281853882853983120C25D007BF011AC284853882853983C00791
:20078700120C25D284853882853983120C25D007BF0216C286853882853983120C25C286F5
:2007A700853882853983120C2590000022AF827D007E008D038E04C3EB953AEC953B5036B0
:2007C700300A04900001229000C7E0F538A3E0F5398F82C007C006C005120711E582858310
:2007E700F0D005D006D00745F06004900001220DBD00C00E80BD90000022AF82750B647523
:200807000C00853C82853D83C007120CDFAD82AE83D0072007030208ABE4F53EF53FC3E570
:200827003E9464E53F6480948040030208ABE53E253EF9E53F33FAE92401F9EA3400FA7800
:20084700007C00C3E89DEC64808EF063F08095F05047300A049000012289828A83E0F5387A
:20086700A3E0F5398F82C007C006C005C004C002C001C000120711E5828583F0D000D0012C
:20088700D002D004D005D006D00745F060049000012208B800AD0C80AA053EE4B53E020519
:2008A7003F020825300703020936754063754100E54130E703020936E5402540F9E541331D
:2008C700FAE92401F9EA3400FA78007C00C3E89DEC64808EF063F08095F05047300A0490B1
:2008E70000012289828A83E0F538A3E0F5398F82C007C006C005C004C002C001C000120775
:2009070011E5828583F0D000D001D002D004D005D006D00745F060049000012208B800ADDE
:200927000C80AA154074FFB5400215410208B790000022AF82854282854383C007120D51F6
:20094700120440AD82AE83D007C3ED9490EE940140127BC87C008B488C49ED2470F8EE3458
:20096700FEFA8013EEC313CD13CDFE8D038E048D488E4978007A00E84A7002F8FAA20892E4
:2009870080C282A2089283A20892858544828545838546F0E547C007C004C003C002C000BD
:2009A700120555D000D002D003D004D007200A208B3C8C3DD2078F82C007C002C00012087D
:2009C70001E5828583F0D000D002D00745F0600122200A16883A8A3B8F82C0071207B4E52E
:2009E700828583F0D00745F0600122200A1685483C85493DC2078F82120801E5828583F03F
:0A0A070045F0600122100A012222CE
:200A1100120AB4BC0003020DB3EF60FA30D502B2D1E583B4FF03020DC9E582B4FF03020D7F
:200A3100C9258340072482400B020DB32483145003020DC9F582EA8DF0A4A8F0EA8EF0A42E
:200A510028F8E435F0F9EB8DF0A428E935F0F9E433CA8FF0A429F9EA35F0FAEBF88EF0A4F4
:200A710029F9EA35F0FAE433FBEC8DF0A429F9EA35F0FAE43BFBE88FF0A42AFAEB35F0FB9C
:200A9100E433CCFD8EF0A42AFAEB35F0FBE43CFCED8FF0A42BFBEC35F0FC20E703120AE2AD
:030AB100020D92A1
:200AB400AA82AB83A2F73392D1F5826002D2F7ACF0E58124F9F8E6FD08E6FE0886F008E6A5
:0E0AD400A2F73392D5F5836002D2F7AFF0227D
:06005800E478FFF6D8FD7C
:200AE2007804EC7011E58224F8500AF582E4C9CACBFCD8EF22EC7820058220E713D5820113
:130B020022C3E933F9EA33FAEB33FBEC33FCD8EA15822220
:200036007905E94400601B7A01900FCF78D375A000E493F2A308B8000205A0D9F4DAF275BA
:02005600A0FF09
:05009D00750800C20916
:200B1500759850438E01438E0475D7D075D6FF438E10D2AFD2AC2285829910990280FB226C
:200B3500AD82AE83AFF08D828E838FF0120EBEFC60188C820DBD00010EC007C006C0051265
:200B55000B2CD005D006D00780DC22AF8275825AC007120B2C7582A5120B2C758204120BBA
:200B75002C758280120B2CD0078F82120B2C850982120B2C850A82020B2CC0E0C082C0837B
:200B9500C007C0D075D000109802801CE508FF04F508EF24C9F582E43400F583E599F074AC
:130BB500F625085003750800D0D0D007D083D082D0E0323C
:0200A200C20A90
:0A0BC800C288D2A8D2AF22D20A32AE
:200BD200438E805389F0758A40758CA2C28DD28C22AE82AF837C007D00C3EC9EED9F502190
:200BF200C007C006C005C004120BD2D004D005D006D007308DFDC28CC28D0CBC00DB0D8001
:200C1200D822438E4053890F758B40758DFFC28FD28E22AE82AF837C007D00C3EC9EED9F84
:200C32005021C007C006C005C004120C14D004D005D006D007308FFDC28EC28F0CBC00DB93
:040C52000D80D82217
:200C5600FFA8811818120D26D2D133E6400730E70B7582002220E70675820122C2D1120DCA
:100C760008E97003F5822220D101B3E433F582221C
:200C8600120AB47900E583B58202800D5003120DE1E583C39582120F12E5D0C465D020E160
:200CA60017EA2DFAEB3EFBEC3FFC50097401120F12EC4480FC020D92C3EA9DFAEB9EFBECB9
:190CC6009FFC500FC3E499F9E49AFAE49BFBE49CFCB2D1120AE2020D9252
:20005E007800E84400600A790175A000E4F309D8FC78D2E84400600C7901900001E4F0A3CD
:04007E00D8FCD9FAD7
:200CDF007A10E4FBFCE58225E0F582E58333F583EB33FBEC33FCEB950BF5F0EC950C400623
:090CFF00FCABF0438201DADD22B6
:200D08007901AA82E68F82B5821318E6B5F00E18E6B5830918E68A82B58202790022B480E2
:200D28000FE5F0700AE5837006E58270027F00EFB6801518B6001018B6000B18B60006084A
:090D4800080876002208080822C0
:0D0D5100AC83AB827A007900748E020EE351
:200D5E00120F55700AE582458345F0700122E430D112F4700BE5F0F47006E58330E7012247
:140D7E0090800022700AE5F07006E58320E70122907FFF22A8
:200D9200B98003EA13B34010EA2401FAE43BFBE43CFC50047C800582BC000EBB000BBA00A5
:200DB20008E4F5F0F583F58222A2D1E582138CF092F78B838A8222E4F583F58275F080F465
:0F0DD200A2D11322E4F583F58275F0C0747F225D
:1A0DE100E582C583F582A2D133A2D592D11392D5ECCFFCEBCEFBEACDFA229A
:200DFB00120AB430D502B2D1BF0009BC0003020DD6020DC9BC0003020DB3E583B4FF0BE5AE
:200E1B0082B4FF03020DD6020DB3E582B4FF03020DC9C395835007247F400B020DB324805D
:200E3B00145003020DC9F582C3ED9AEE9BEF9C40111582C3EA33F9EB33FAEC33FBE433FC7D
:200E5B008005E4CCCBCAF9C08275F019C3E99DEA9EEB9FEC9400D5F002802D400EE99DF9D8
:200E7B00EA9EFAEB9FFBEC9400FCC3B3E833F8E58233F582E58333F583C3E933F9EA33FA38
:200E9B00EB33FBEC33FC80C4B3E4F938FAE43582FBE43583FCD082500405827C80120AE2A8
:030EBB00020DAA7B
:0D002900758149120FC2E5826003020026B6
:1C0EBE0020F71430F6148883A88220F507E6A88375830022E280F7E49322E02243
:200EDA00FCABF0AA83A982749EF582C2D1EC30E716D2D1E9F42401F9EAF43400FAEBF43417
:0D0EFA0000FBECF43400FC120AE2020D9241
:0B0F0700A8811818C6B2E7C6020C86CD
:200F12006040F82582500274FFF582E824F8501ECCCBCAF9E4CC24F85014CBCAF9E4CB24E7
:200F3200F8500BCAF9E4CA24F8500379002224086010F8C3EC13FCEB13FBEA13FAE913F99A
:030F5200D8F122B1
:200F5500120FB0C3749E958240397900120F1230D126E9F42401F582EAF43400F583EBF491
:200F75003400F5F0ECF43400700AE582458345F0700122E430E70F22EC20E71489828A8373
:1B0F95008BF02230D10AE4F582F583F5F074802274FFF582F583F5F0747F226F
:120FB000AA82AB83A2F73392D1F5826002D2F7ACF02246
:040FC2007582002212
:00000001FF
