:06000000020029020BAA18
:01000B0032C2
:0100130032BA
:01001B0032B2
:03002300020B6A63
:0300930002002642
:0300260002024192
:20009600AE82AF837C007D00C3EC9EED64808FF063F08095F05027C2C19001F4C007C006EE
:2000B600C005C004120BD9D2C19001F4120BD9D004D005D006D0070CBC00CD0D80CA2290A9
:2000D6000004120096753C58753D02D206E4F53EF53F7540487541437582011206ED300358
:2000F60014E4F50BF50CF50DF50E90002275F0401207C6D204753C84753D03C206E4F53E17
:20011600F53F7540487541437582001206ED300014E4F50BF50CF50DF50E90002275F0401E
:200136001207C6D20222753C64753D00C206E4F53EF53F7540967541437582011206ED9029
:20015600000A120BD9753C64753D00D206E4F53EF53F7540967541437582011206ED9000CE
:200176000A020BD9753C32753D00C206E4F53EF53F7540AF7541437582011206ED9003E8FC
:20019600120BD9753C32753D00D206E4F53EF53F7540AF7541437582010206ED753CB47577
:2001B6003D00D206E4F53EF53F7540C87541437582001206ED9003E8120BD9753C40753D43
:2001D60001D206E4F53EF53F7540C87541437582001206ED90000A020BD9753CFA753D0096
:2001F600C206E4F53EF53F7540AF7541437582011206ED9003E8120BD9753CFA753D00D2DC
:2002160006E4F53EF53F7540AF7541437582010206ED753CF4753D01C206E4F53EF53F754D
:2002360040E17541437582000206ED43947F859393120AF0120BA3900FBC75F080120B1068
:20025600900064120BD9E4F50BF50CF50DF50E90002275F0401207C6900002120096300212
:12027600FD3004FA12017A1201B21201F012022880EC4E
:0E0FBC007374617274210D0A000000000000C1
:0A008200C200C201C202C203C204A0
:20028800AC82AD83AEF0FFE4C0E0C0E074B4C0E07442C0E08C828D838EF0EF120DF1AC8250
:2002A800AD83AEF0FFE58124FCF581E4C0E0C0E074FAC0E07444C0E08C828D838EF0EF1246
:2002C80009ECAC82AD83AEF0FFE58124FCF581C004C005C006C00790000075F080743F12DA
:2002E8000DF1AC82AD83AEF0FFE58124FCF581C004C005C006C00790500075F0C374471216
:2003080009ECAC82AD83AEF0FFE58124FCF581E4C0E0C0E0C0E07440C0E08C828D838EF035
:20032800EF120DF1AC82AD83AEF0FFE58124FCF5818C828D838EF0EF020D47AC82AD83AED2
:20034800F0FFC007C006C005C004E4C0E0C0E074A0C0E023C0E08C828D838EF0EF120C4C00
:20036800AB82E58124FCF581D004D005D006D007EB60087C007D007EA07F41C007C006C07F
:2003880005C004C004C005C006C00790000075F07A7444120C4CAB82E58124FCF581D004E8
:2003A800D005D006D007EB60087C007D007E7A7F44E4C0E0C0E074A0C0E023C0E08C828D76
:2003C800838EF0EF120EFDAC82AD83AEF0FFE58124FCF581E4C0E0C0E074C8C0E07442C09B
:2003E800E08C828D838EF0EF120DF185822E85832F85F030F531E58124FCF5817A017B0051
:20040800C3EA9464EB648094804001228A828B83C003C002120D7BA882A983AEF0FFC02ECF
:20042800C02FC030C031888289838EF0EF1209ECAC82AD83AEF0FFE58124FCF581E4C0E0DF
:20044800C0E074A0C0E023C0E08C828D838EF0EF120C7CAC82AD83AEF0FFE58124FCF58161
:20046800D002D003EA2AF8EB33F9E82401F8E93400F98C828D838EF0EFC003C002C001C000
:2004880000120288AE82AF83D000D001D002D00388828983EEF0EFA3F00ABA00010B0204C4
:2004A80008AF82A293B39200A294B39201A2B3B39203300106C2029000012230030720045C
:2004C800049000012230000720020490000122EF700FB281853282853383C007120C1BD068
:2004E80007BF010FB284853282853383C007120C1BD007BF020BB286853282853383120C07
:200508001B90000022AF827D007E008D038E04C3EB9534EC95355036300804900001229086
:2005280000C7E0F532A3E0F5338F82C007C006C0051204A9E5828583F0D005D006D00745F2
:20054800F06004900001220DBD00C00E80BD90000022AC82AD83AEF0FF74ECC0E07451C085
:20056800E07438C0E0743DC0E08C828D838EF0EF120DF1AC82AD83AEF0FFE58124FCF58164
:20058800E4C0E0C0E0C0E0743FC0E08C828D838EF0EF120C7CAC82AD83AEF0FFE58124FC96
:2005A800F5818C828D838EF0EF020D47AF82750B64750C00853682853783C007120CD5AD63
:2005C80082AE83D00720050302065EE4F538F539C3E5389464E53964809480400302065E25
:2005E800E5382538F9E53933FAE92401F9EA3400FA78007C00C3E89DEC64808EF063F080B9
:2006080095F050473008049000012289828A83E0F532A3E0F5338F82C007C006C005C004D6
:20062800C002C001C0001204A9E5828583F0D000D001D002D004D005D006D00745F06004EF
:200648009000012208B800AD0C80AA0538E4B5380205390205D83005030206E9753A63755F
:200668003B00E53B30E7030206E9E53A253AF9E53B33FAE92401F9EA3400FA78007C00C372
:20068800E89DEC64808EF063F08095F050473008049000012289828A83E0F532A3E0F533D7
:2006A8008F82C007C006C005C004C002C001C0001204A9E5828583F0D000D001D002D00463
:2006C800D005D006D00745F060049000012208B800AD0C80AA153A74FFB53A02153B020696
:2006E8006A90000022AF82853C82853D83C007120D7B12055AAD82AE83D007ED2DFDEE33DC
:20070800FEC3ED94D0EE940740127BE87C038B428C43ED2430F8EE34F8FA8013EEC313CDF5
:2007280013CDFE8D038E048D428E4378007A00E84A7002F8FAA2069280C282A20692838549
:200748003E82853F838540F0E541C007C004C003C002C000120343D000D002D003D004D06E
:20076800072008208B368C37D2058F82C007C002C0001205B4E5828583F0D000D002D007CA
:2007880045F060012220081688348A358F82C00712050DE5828583F0D00745F060012220D6
:2007A8000816854236854337C2058F821205B4E5828583F045F06001221008012222AD82D1
:2007C800AE83AFF0E50B120BADA3E50C120BAD74022DFDE43EFE8D828E838FF0E50D120BBB
:2007E800ADA3E50E020BADAD82AE83AFF0E50B120BADA3E50C120BAD74022DFDE43EFE8D90
:20080800828E838FF0E50D120BADA3E50E020BAD85824785834885F049AA44AB45AC468AFC
:20082800828B838CF0120EB4F8A3120EB4F98547828548838549F0120EB4FEA3120EB4FFC4
:20084800E8C39EF54AE99FF54B74022AFDE43BFE8C078D828E838FF0120EB4F551A3120E77
:20086800B4F55274022547F54EE43548F54F854950854E82854F838550F0120EB4F8A3129B
:200888000EB4F9E551C398F54CE55299F54DC3E4954A7480854BF063F08095F05033854ACD
:2008A8003C854B3DD206E4F53EF53F7540C8754142758200C007C006C005C004C003C002BD
:2008C8001206EDD002D003D004D005D006D0078036C3E4954AF53CE4954BF53DC206E4F50C
:2008E8003EF53F7540C8754142758200C007C006C005C004C003C0021206EDD002D003D0FD
:2009080004D005D006D007900064C007C006C005C004C003C002120BD9D002D003D004D07B
:2009280005D006D007C3E4954C7480854DF063F08095F05033854C3C854D3DC206E4F53EE9
:20094800F53F7540C8754142758201C007C006C005C004C003C0021206EDD002D003D004D5
:20096800D005D006D0078036C3E4954AF53CE4954BF53DD206E4F53EF53F7540C8754142F2
:20098800758201C007C006C005C004C003C0021206EDD002D003D004D005D006D0078A82B0
:2009A8008B838CF0120EB4FAA3120EB4FB8547828548838549F0EA120BADA3EB120BAD8D70
:2009C800828E838FF0120EB4FDA3120EB4FE854E82854F838550F0ED120BADA3EE120BAD34
:0409E8009000002259
:2009EC00120A8FBC0003020DA9EF60FA30D502B2D1E583B4FF03020DBFE582B4FF03020DDE
:200A0C00BF258340072482400B020DA92483145003020DBFF582EA8DF0A4A8F0EA8EF0A471
:200A2C0028F8E435F0F9EB8DF0A428E935F0F9E433CA8FF0A429F9EA35F0FAEBF88EF0A419
:200A4C0029F9EA35F0FAE433FBEC8DF0A429F9EA35F0FAE43BFBE88FF0A42AFAEB35F0FBC1
:200A6C00E433CCFD8EF0A42AFAEB35F0FBE43CFCED8FF0A42BFBEC35F0FC20E703120ABDF7
:030A8C00020D88D0
:200A8F00AA82AB83A2F73392D1F5826002D2F7ACF0E58124F9F8E6FD08E6FE0886F008E6CA
:0E0AAF00A2F73392D5F5836002D2F7AFF022A2
:06005800E478FFF6D8FD7C
:200ABD007804EC7011E58224F8500AF582E4C9CACBFCD8EF22EC7820058220E713D5820138
:130ADD0022C3E933F9EA33FAEB33FBEC33FCD8EA15822246
:200036007905E94400601B7A01900FC578D375A000E493F2A308B8000205A0D9F4DAF275C4
:02005600A0FF09
:05008C00750800C20729
:200AF000759850438E01438E0475D7D075D6FF438E10D2AFD2AC2285829910990280FB2292
:200B1000AD82AE83AFF08D828E838FF0120EB4FC60188C820DBD00010EC007C006C0051294
:200B30000B07D005D006D00780DC22AF8275825AC007120B077582A5120B07758204120B4E
:200B500007758280120B07D0078F82120B07850982120B07850A82020B07C0E0C082C08359
:200B7000C007C0D075D000109802801CE508FF04F508EF24C9F582E43400F583E599F074D1
:130B9000F625085003750800D0D0D007D083D082D0E03261
:02009100C208A3
:0A0BA300C288D2A8D2AF22D20832D5
:1B0BAD0020F71130F6138883A88220F509F6A8837583002280FEF280F5F02247
:200BC800438E805389F0758ACD758CD4C28DD28C22AE82AF837C007D00C3EC9EED9F5021DB
:200BE800C007C006C005C004120BC8D004D005D006D007308DFDC28CC28D0CBC00DB0D8015
:200C0800D822438E4053890F758B10758DFFC28FD28E22AE82AF837C007D00C3EC9EED9FBE
:200C28005021C007C006C005C004120C0AD004D005D006D007308FFDC28EC28F0CBC00DBA7
:040C48000D80D82221
:200C4C00FFA8811818120D1CD2D133E6400730E70B7582002220E70675820122C2D1120CDF
:100C6C00FEE97003F5822220D101B3E433F5822230
:200C7C00120A8F7900E583B58202800D5003120DD7E583C39582120F08E5D0C465D020E1A3
:200C9C0017EA2DFAEB3EFBEC3FFC50097401120F08EC4480FC020D88C3EA9DFAEB9EFBECD7
:190CBC009FFC500FC3E499F9E49AFAE49BFBE49CFCB2D1120ABD020D888B
:20005E007800E84400600A790175A000E4F309D8FC78D2E84400600C7901900001E4F0A3CD
:04007E00D8FCD9FAD7
:200CD5007A10E4FBFCE58225E0F582E58333F583EB33FBEC33FCEB950BF5F0EC950C40062D
:090CF500FCABF0438201DADD22C0
:200CFE007901AA82E68F82B5821318E6B5F00E18E6B5830918E68A82B58202790022B480ED
:200D1E000FE5F0700AE5837006E58270027F00EFB6801518B6001018B6000B18B600060854
:090D3E00080876002208080822CA
:200D4700120F4B700AE582458345F0700122E430D112F4700BE5F0F47006E58330E7012268
:140D670090800022700AE5F07006E58320E70122907FFF22BF
:0D0D7B00AC83AB827A007900748E020ED931
:200D8800B98003EA13B34010EA2401FAE43BFBE43CFC50047C800582BC000EBB000BBA00AF
:200DA80008E4F5F0F583F58222A2D1E582138CF092F78B838A8222E4F583F58275F080F46F
:0F0DC800A2D11322E4F583F58275F0C0747F2267
:1A0DD700E582C583F582A2D133A2D592D11392D5ECCFFCEBCEFBEACDFA22A4
:200DF100120A8F30D502B2D1BF0009BC0003020DCC020DBFBC0003020DA9E583B4FF0BE5FB
:200E110082B4FF03020DCC020DA9E582B4FF03020DBFC395835007247F400B020DA924808F
:200E3100145003020DBFF582C3ED9AEE9BEF9C40111582C3EA33F9EB33FAEC33FBE433FC91
:200E51008005E4CCCBCAF9C08275F019C3E99DEA9EEB9FEC9400D5F002802D400EE99DF9E2
:200E7100EA9EFAEB9FFBEC9400FCC3B3E833F8E58233F582E58333F583C3E933F9EA33FA42
:200E9100EB33FBEC33FC80C4B3E4F938FAE43582FBE43583FCD082500405827C80120ABDD7
:030EB100020DA08F
:0D002900758152120FB8E5826003020026B7
:1C0EB40020F71430F6148883A88220F507E6A88375830022E280F7E49322E0224D
:200ED000FCABF0AA83A982749EF582C2D1EC30E716D2D1E9F42401F9EAF43400FAEBF43421
:0D0EF00000FBECF43400FC120ABD020D887A
:0B0EFD00A8811818C6B2E7C6020C7CE2
:200F08006040F82582500274FFF582E824F8501ECCCBCAF9E4CC24F85014CBCAF9E4CB24F1
:200F2800F8500BCAF9E4CA24F8500379002224086010F8C3EC13FCEB13FBEA13FAE913F9A4
:030F4800D8F122BB
:200F4B00120FA6C3749E958240397900120F0830D126E9F42401F582EAF43400F583EBF4AF
:200F6B003400F5F0ECF43400700AE582458345F0700122E430E70F22EC20E71489828A837D
:1B0F8B008BF02230D10AE4F582F583F5F074802274FFF582F583F5F0747F2279
:120FA600AA82AB83A2F73392D1F5826002D2F7ACF02250
:040FB800758200221C
:00000001FF
