:06000000020029020BA51D
:01000B0032C2
:0100130032BA
:01001B0032B2
:03002300020B6568
:0300930002002642
:0300260002024192
:20009600AE82AF837C007D00C3EC9EED64808FF063F08095F05027C2C19001F4C007C006EE
:2000B600C005C004120BD4D2C19001F4120BD4D004D005D006D0070CBC00CD0D80CA2290B3
:2000D6000004120096753C58753D02D206E4F53EF53F7540487541437582011206E830035D
:2000F60014E4F50BF50CF50DF50E90002275F0401207C1D204753C84753D03C206E4F53E1C
:20011600F53F7540487541437582001206E8300014E4F50BF50CF50DF50E90002275F04023
:200136001207C1D20222753C64753D00C206E4F53EF53F7540967541437582011206E89033
:20015600000A120BD4753C64753D00D206E4F53EF53F7540967541437582011206E89000D8
:200176000A020BD4753C32753D00C206E4F53EF53F7540AF7541437582011206E89003E806
:20019600120BD4753C32753D00D206E4F53EF53F7540AF7541437582010206E8753CB47581
:2001B6003D00D206E4F53EF53F7540C87541437582001206E89003E8120BD4753C40753D4D
:2001D60001D206E4F53EF53F7540C87541437582001206E890000A020BD4753CFA753D00A0
:2001F600C206E4F53EF53F7540AF7541437582011206E89003E8120BD4753CFA753D00D2E6
:2002160006E4F53EF53F7540AF7541437582010206E8753CF4753D01C206E4F53EF53F7552
:2002360040E17541437582000206E843947F859393120AEB120B9E900FB775F080120B0B81
:20025600900064120BD4E4F50BF50CF50DF50E90002275F0401207C1900002120096D2027A
:0D027600D2043002F93004F612013C80F190
:0E0FB7007374617274210D0A000000000000C6
:0A008200C200C201C202C203C204A0
:20028300AC82AD83AEF0FFE4C0E0C0E074B4C0E07442C0E08C828D838EF0EF120DECAC825A
:2002A300AD83AEF0FFE58124FCF581E4C0E0C0E074FAC0E07444C0E08C828D838EF0EF124B
:2002C30009E7AC82AD83AEF0FFE58124FCF581C004C005C006C00790000075F080743F12E4
:2002E3000DECAC82AD83AEF0FFE58124FCF581C004C005C006C00790500075F0C374471220
:2003030009E7AC82AD83AEF0FFE58124FCF581E4C0E0C0E0C0E07440C0E08C828D838EF03F
:20032300EF120DECAC82AD83AEF0FFE58124FCF5818C828D838EF0EF020D42AC82AD83AEE1
:20034300F0FFC007C006C005C004E4C0E0C0E074A0C0E023C0E08C828D838EF0EF120C470A
:20036300AB82E58124FCF581D004D005D006D007EB60087C007D007EA07F41C007C006C084
:2003830005C004C004C005C006C00790000075F07A7444120C47AB82E58124FCF581D004F2
:2003A300D005D006D007EB60087C007D007E7A7F44E4C0E0C0E074A0C0E023C0E08C828D7B
:2003C300838EF0EF120EF8AC82AD83AEF0FFE58124FCF581E4C0E0C0E074C8C0E07442C0A5
:2003E300E08C828D838EF0EF120DEC85822E85832F85F030F531E58124FCF5817A007B005C
:20040300C3EA9464EB648094804001228A828B83C003C002120D76A882A983AEF0FFC02ED9
:20042300C02FC030C031888289838EF0EF1209E7AC82AD83AEF0FFE58124FCF581E4C0E0E9
:20044300C0E074A0C0E023C0E08C828D838EF0EF120C77AC82AD83AEF0FFE58124FCF5816B
:20046300D002D003EA2AF8EB33F9E82401F8E93400F98C828D838EF0EFC003C002C001C005
:2004830000120283AE82AF83D000D001D002D00388828983EEF0EFA3F00ABA00010B0204CE
:2004A30003AF82A293B39200A294B39201A2B3B39203300106C20290000122300307200466
:2004C300049000012230000720020490000122EF700FB281853282853383C007120C16D072
:2004E30007BF010FB284853282853383C007120C16D007BF020BB286853282853383120C11
:200503001690000022AF827D007E008D038E04C3EB9534EC95355036300804900001229090
:2005230000C7E0F532A3E0F5338F82C007C006C0051204A4E5828583F0D005D006D00745FC
:20054300F06004900001220DBD00C00E80BD90000022AC82AD83AEF0FF74ECC0E07451C08A
:20056300E07438C0E0743DC0E08C828D838EF0EF120DECAC82AD83AEF0FFE58124FCF5816E
:20058300E4C0E0C0E0C0E0743FC0E08C828D838EF0EF120C77AC82AD83AEF0FFE58124FCA0
:2005A300F5818C828D838EF0EF020D42AF82750B64750C00853682853783C007120CD0AD72
:2005C30082AE83D007200503020659E4F538F539C3E5389464E53964809480400302065934
:2005E300E5382538F9E53933FAE92401F9EA3400FA78007C00C3E89DEC64808EF063F080BE
:2006030095F050473008049000012289828A83E0F532A3E0F5338F82C007C006C005C004DB
:20062300C002C001C0001204A4E5828583F0D000D001D002D004D005D006D00745F06004F9
:200643009000012208B800AD0C80AA0538E4B5380205390205D33005030206E4753A63756E
:200663003B00E53B30E7030206E4E53A253AF9E53B33FAE92401F9EA3400FA78007C00C37C
:20068300E89DEC64808EF063F08095F050473008049000012289828A83E0F532A3E0F533DC
:2006A3008F82C007C006C005C004C002C001C0001204A4E5828583F0D000D001D002D0046D
:2006C300D005D006D00745F060049000012208B800AD0C80AA153A74FFB53A02153B02069B
:2006E3006590000022AF82853C82853D83C007120D76120555AD82AE83D007ED2DFDEE33F0
:20070300FEC3ED94D0EE940740127BE87C038B428C43ED2430F8EE34F8FA8013EEC313CDFA
:2007230013CDFE8D038E048D428E4378007A00E84A7002F8FAA2069280C282A2069283854E
:200743003E82853F838540F0E541C007C004C003C002C00012033ED000D002D003D004D078
:20076300072008208B368C37D2058F82C007C002C0001205AFE5828583F0D000D002D007D4
:2007830045F060012220081688348A358F82C007120508E5828583F0D00745F060012220E0
:2007A3000816854236854337C2058F821205AFE5828583F045F06001221008012222AD82DB
:2007C300AE83AFF0E50B120BA8A3E50C120BA874022DFDE43EFE8D828E838FF0E50D120BCA
:2007E300A8A3E50E020BA8AD82AE83AFF0E50B120BA8A3E50C120BA874022DFDE43EFE8DA9
:20080300828E838FF0E50D120BA8A3E50E020BA885824785834885F049AA44AB45AC468A0B
:20082300828B838CF0120EAFF8A3120EAFF98547828548838549F0120EAFFEA3120EAFFFDD
:20084300E8C39EF54AE99FF54B74022AFDE43BFE8C078D828E838FF0120EAFF551A3120E81
:20086300AFF55274022547F54EE43548F54F854950854E82854F838550F0120EAFF8A312AA
:200883000EAFF9E551C398F54CE55299F54DC3E4954A7480854BF063F08095F05033854AD7
:2008A3003C854B3DD206E4F53EF53F7540C8754142758200C007C006C005C004C003C002C2
:2008C3001206E8D002D003D004D005D006D0078036C3E4954AF53CE4954BF53DC206E4F516
:2008E3003EF53F7540C8754142758200C007C006C005C004C003C0021206E8D002D003D007
:2009030004D005D006D007900064C007C006C005C004C003C002120BD4D002D003D004D085
:2009230005D006D007C3E4954C7480854DF063F08095F05033854C3C854D3DC206E4F53EEE
:20094300F53F7540C8754142758201C007C006C005C004C003C0021206E8D002D003D004DF
:20096300D005D006D0078036C3E4954AF53CE4954BF53DD206E4F53EF53F7540C8754142F7
:20098300758201C007C006C005C004C003C0021206E8D002D003D004D005D006D0078A82BA
:2009A3008B838CF0120EAFFAA3120EAFFB8547828548838549F0EA120BA8A3EB120BA88D89
:2009C300828E838FF0120EAFFDA3120EAFFE854E82854F838550F0ED120BA8A3EE120BA84D
:0409E300900000225E
:2009E700120A8ABC0003020DA4EF60FA30D502B2D1E583B4FF03020DBAE582B4FF03020DF2
:200A0700BA258340072482400B020DA42483145003020DBAF582EA8DF0A4A8F0EA8EF0A485
:200A270028F8E435F0F9EB8DF0A428E935F0F9E433CA8FF0A429F9EA35F0FAEBF88EF0A41E
:200A470029F9EA35F0FAE433FBEC8DF0A429F9EA35F0FAE43BFBE88FF0A42AFAEB35F0FBC6
:200A6700E433CCFD8EF0A42AFAEB35F0FBE43CFCED8FF0A42BFBEC35F0FC20E703120AB801
:030A8700020D83DA
:200A8A00AA82AB83A2F73392D1F5826002D2F7ACF0E58124F9F8E6FD08E6FE0886F008E6CF
:0E0AAA00A2F73392D5F5836002D2F7AFF022A7
:06005800E478FFF6D8FD7C
:200AB8007804EC7011E58224F8500AF582E4C9CACBFCD8EF22EC7820058220E713D582013D
:130AD80022C3E933F9EA33FAEB33FBEC33FCD8EA1582224B
:200036007905E94400601B7A01900FC078D375A000E493F2A308B8000205A0D9F4DAF275C9
:02005600A0FF09
:05008C00750800C20729
:200AEB00759850438E01438E0475D7D075D6FF438E10D2AFD2AC2285829910990280FB2297
:200B0B00AD82AE83AFF08D828E838FF0120EAFFC60188C820DBD00010EC007C006C005129E
:200B2B000B02D005D006D00780DC22AF8275825AC007120B027582A5120B02758204120B62
:200B4B0002758280120B02D0078F82120B02850982120B02850A82020B02C0E0C082C08377
:200B6B00C007C0D075D000109802801CE508FF04F508EF24C9F582E43400F583E599F074D6
:130B8B00F625085003750800D0D0D007D083D082D0E03266
:02009100C208A3
:0A0B9E00C288D2A8D2AF22D20832DA
:1B0BA80020F71130F6138883A88220F509F6A8837583002280FEF280F5F0224C
:200BC300438E805389F0758ACD758CD4C28DD28C22AE82AF837C007D00C3EC9EED9F5021E0
:200BE300C007C006C005C004120BC3D004D005D006D007308DFDC28CC28D0CBC00DB0D801F
:200C0300D822438E4053890F758B10758DFFC28FD28E22AE82AF837C007D00C3EC9EED9FC3
:200C23005021C007C006C005C004120C05D004D005D006D007308FFDC28EC28F0CBC00DBB1
:040C43000D80D82226
:200C4700FFA8811818120D17D2D133E6400730E70B7582002220E70675820122C2D1120CE9
:100C6700F9E97003F5822220D101B3E433F582223A
:200C7700120A8A7900E583B58202800D5003120DD2E583C39582120F03E5D0C465D020E1B7
:200C970017EA2DFAEB3EFBEC3FFC50097401120F03EC4480FC020D83C3EA9DFAEB9EFBECE6
:190CB7009FFC500FC3E499F9E49AFAE49BFBE49CFCB2D1120AB8020D839A
:20005E007800E84400600A790175A000E4F309D8FC78D2E84400600C7901900001E4F0A3CD
:04007E00D8FCD9FAD7
:200CD0007A10E4FBFCE58225E0F582E58333F583EB33FBEC33FCEB950BF5F0EC950C400632
:090CF000FCABF0438201DADD22C5
:200CF9007901AA82E68F82B5821318E6B5F00E18E6B5830918E68A82B58202790022B480F2
:200D19000FE5F0700AE5837006E58270027F00EFB6801518B6001018B6000B18B600060859
:090D3900080876002208080822CF
:200D4200120F46700AE582458345F0700122E430D112F4700BE5F0F47006E58330E7012272
:140D620090800022700AE5F07006E58320E70122907FFF22C4
:0D0D7600AC83AB827A007900748E020ED43B
:200D8300B98003EA13B34010EA2401FAE43BFBE43CFC50047C800582BC000EBB000BBA00B4
:200DA30008E4F5F0F583F58222A2D1E582138CF092F78B838A8222E4F583F58275F080F474
:0F0DC300A2D11322E4F583F58275F0C0747F226C
:1A0DD200E582C583F582A2D133A2D592D11392D5ECCFFCEBCEFBEACDFA22A9
:200DEC00120A8A30D502B2D1BF0009BC0003020DC7020DBABC0003020DA4E583B4FF0BE514
:200E0C0082B4FF03020DC7020DA4E582B4FF03020DBAC395835007247F400B020DA42480A8
:200E2C00145003020DBAF582C3ED9AEE9BEF9C40111582C3EA33F9EB33FAEC33FBE433FC9B
:200E4C008005E4CCCBCAF9C08275F019C3E99DEA9EEB9FEC9400D5F002802D400EE99DF9E7
:200E6C00EA9EFAEB9FFBEC9400FCC3B3E833F8E58233F582E58333F583C3E933F9EA33FA47
:200E8C00EB33FBEC33FC80C4B3E4F938FAE43582FBE43583FCD082500405827C80120AB8E1
:030EAC00020D9B99
:0D002900758152120FB3E5826003020026BC
:1C0EAF0020F71430F6148883A88220F507E6A88375830022E280F7E49322E02252
:200ECB00FCABF0AA83A982749EF582C2D1EC30E716D2D1E9F42401F9EAF43400FAEBF43426
:0D0EEB0000FBECF43400FC120AB8020D8389
:0B0EF800A8811818C6B2E7C6020C77EC
:200F03006040F82582500274FFF582E824F8501ECCCBCAF9E4CC24F85014CBCAF9E4CB24F6
:200F2300F8500BCAF9E4CA24F8500379002224086010F8C3EC13FCEB13FBEA13FAE913F9A9
:030F4300D8F122C0
:200F4600120FA1C3749E958240397900120F0330D126E9F42401F582EAF43400F583EBF4BE
:200F66003400F5F0ECF43400700AE582458345F0700122E430E70F22EC20E71489828A8382
:1B0F86008BF02230D10AE4F582F583F5F074802274FFF582F583F5F0747F227E
:120FA100AA82AB83A2F73392D1F5826002D2F7ACF02255
:040FB3007582002221
:00000001FF
